:020000040800F2
:10000000D00E002089010008971A0008291800085E
:10001000951A0008E70200087F2000080000000091
:10002000000000000000000000000000E51D0008C6
:100030007F03000800000000991A0008E71D00086F
:10004000A3010008A3010008A3010008A301000800
:10005000A3010008A3010008A3010008A3010008F0
:10006000A3010008A3010008A3010008E902000899
:10007000A3010008A3010008A3010008A3010008D0
:10008000A3010008A3010008A3010008A3010008C0
:10009000A3010008A3010008A3010008A3010008B0
:1000A000A3010008A3010008A3010008A3010008A0
:1000B000A3010008A3010008A3010008A301000890
:1000C000A3010008A3010008A3010008A301000880
:1000D000A3010008A3010008A3010008A301000870
:1000E000A3010008A3010008A301000800F002F822
:1000F00000F03AF80AA090E8000C82448344AAF188
:100100000107DA4501D100F02FF8AFF2090EBAE885
:100110000F0013F0010F18BFFB1A43F0010318473B
:100120007422000094220000103A24BF78C878C1DD
:10013000FAD8520724BF30C830C144BF04680C60ED
:10014000704700000023002400250026103A28BF35
:1001500078C1FBD8520728BF30C148BF0B60704739
:100160001FB51FBD10B510BD00F05DF81146FFF7BB
:10017000F7FF01F095FF00F07BF803B4FFF7F2FF03
:1001800003BC00F07FF80000094880470948004799
:10019000FEE7FEE7FEE7FEE7FEE7FEE7FEE7FEE737
:1001A000FEE7FEE704480549054A064B7047000094
:1001B000571E0008ED000008D0080020D00E0020D7
:1001C000D00A0020D00A00204FF0000200B51346EC
:1001D00094469646203922BFA0E80C50A0E80C5067
:1001E000B1F12001BFF4F7AF090728BFA0E80C5018
:1001F00048BF0CC05DF804EB890028BF40F8042B11
:1002000008BF704748BF20F8022B11F0804F18BF7D
:1002100000F8012B704770477047704700487047DF
:100220007008002070477546FFF7F8FFAE460500DE
:100230006946534620F00700854618B020B5FFF701
:10024000B1FFBDE820404FF000064FF000074FF02F
:1002500000084FF0000B21F00701AC46ACE8C009E4
:10026000ACE8C009ACE8C009ACE8C0098D467047ED
:1002700010B50446AFF300802046BDE81040FFF7FC
:100280007CBF000001491820ABBEFEE7260002003B
:1002900070B5044600688168C943C90717D18168F1
:1002A00021F00101816000F00FFC05460AE000BF6B
:1002B00000F00AFC401B022804D920688068C04373
:1002C000C00706D020688068C043C007F0D0002077
:1002D00070BDA06A40F01000A062E06A40F001002A
:1002E000E062012070BDFEE7014800F001BA0000A5
:1002F000A00200200C48016839B90C49016089143A
:10030000C161A0F130010862416200214160816059
:100310008021C16049000161890041612021816122
:10032000014800F08FBA0000A0020020080002403F
:1003300010B50022447813468C4201D103700EE0C0
:100340000478641CE4B20470192C08D30370417063
:1003500011B18380837002E0817801B90122417874
:1003600059B1817849B98188491C89B28180B1F538
:10037000487F02D3012181700222104610BD7047D0
:1003800070B5184D2021284600F08CFB01281DD0A7
:1003900000241021284600F085FB012800D0002011
:1003A00011490A7C920042EA4402024302F00F0023
:1003B0000E4A0874105C4A7C104440B24874042809
:1003C00006DB001F4874488A401C08E00124E0E76F
:1003D00010F1040F04DC001D4874488A401E488256
:1003E00070BD0000000C014000000020C022000889
:1003F00086B072B61148816941F01001816180694F
:100400004FF4005600F010000490002400960120E4
:10041000CDE9010402200A4D03906946284600F008
:1004200051FA084F3146284600F041FB04940498E5
:10043000401C0490B842FAD3F4E7000000100240D8
:1004400000100140E0930400F8B50024009490F8F7
:1004500024202546012A12D0012280F824204A684F
:100460001F23072A0DD20668776B521E02EB820209
:1004700093409F430B6893401F43776319E002202A
:10048000F8BD06680D2A0AD2376BD21F02EB820232
:1004900093409F430B6893401F43376309E0F76A1B
:1004A0000D3A02EB820293409F430B6893401F4337
:1004B000F7620A68072306680A2A0AD3F7680A3A25
:1004C00002EB420293409F438B6893401F43F760C7
:1004D00008E0376902EB420293409F438B689340E8
:1004E0001F4337610A68102A01D0112A20D1124B0C
:1004F00002689A4217D193681B0219D4936843F497
:10050000000393600968102912D10C490C4A09684C
:10051000B1FBF2F101EB8101490000E0491E0091BD
:100520000029FBD104E0816A41F0200181620124AD
:1005300080F824502046F8BD002401404C000020E3
:1005400040420F002DE9F0414FF0000704003D4606
:100550007ED0A06A002628B9E66284F8246020468E
:1005600000F07EF82046FFF793FEA16A01F010012B
:10057000014304D0A06A40F01000A06268E0A16AC4
:1005800021F4885141F00201A1626268E169237B94
:100590000A4347EA43010A43A1684FF48077B9420E
:1005A00008D0012906D0002194F814C0BCF1010F35
:1005B00002D00AE03946F7E7F3B1A36A43F020031B
:1005C000A362E36A43F00103E3622368D3F804C043
:1005D0002CF4694C4CEA010CC3F804C023689968F8
:1005E000DFF870C001EA0C0111439960A168B942BB
:1005F0000BD0012909D00CE0DFF85CC0A3690CEB3B
:1006000043330B4343F40061DFE7218A0D05A5F571
:1006100080152168CB6A23F470032B43CB622168D9
:1006200089680E4B1940914208D1E662A16A21F017
:10063000020141F00101A162BDE8F081A06A20F051
:10064000020040F01000A062E06A40F00100E062A9
:100650000120F1E7FDF7E1FF00E0FFFFFE0E1FFFC5
:1006600070B586B000250646009501950295039564
:1006700000681A4988422ED11949886940F40070EF
:100680008861886900F400700490886940F0040073
:1006900088618869694600F0040004900120009098
:1006A000032001900F4800F00DF9104C0E48C4E9EA
:1006B00000058020C4E90250400020618000606194
:1006C0002020C4E90605204600F0BCF808B1FFF779
:1006D0008FFE3462666206B070BD000000240140E7
:1006E000001002400008014008000240A002002063
:1006F0002DE9F05FC16B0C6801680B68D0F840C051
:10070000042202FA0CF2494DDFF824A1494E4A4F67
:10071000DFF828B1DFF828E122422CD05A072AD589
:100720000A68920603D40A6822F004020A6001688B
:10073000A94201D1042219E0514501D1402215E01E
:10074000B14202D14FF4806210E0B94202D14FF4BD
:1007500080420BE0594502D14FF4802206E07145FA
:1007600002D14FF4800201E04FF080622F49083936
:100770004A60C16A3BE04FF0020808FA0CF818EA38
:10078000040F4FF000094FF0010235D05FEA837883
:1007900032D50B689B0605D40B6823F00A030B6067
:1007A00080F821200168A94201D1022219E05145B7
:1007B00001D1202215E0B14202D14FF4007210E0C5
:1007C000B94202D14FF400520BE0594502D14FF427
:1007D000003206E0714502D14FF4001201E04FF003
:1007E0000072124908394A6080F82090816A002915
:1007F0001AD0BDE8F05F0847082505FA0CF5254238
:1008000012D01B0710D50B6823F00E030B6090F875
:100810004010C36B02FA01F15960826380F8212015
:1008200080F82090016BE2E7BDE8F09F08000240ED
:100830001C000240300002404400024058000240C8
:100840006C00024030B528B308C81349142219447B
:10085000B1FBF2F18900C163104981630221417744
:100860001A6843F6F0718A43D0E900142143D0E9B5
:1008700002452C432143046921434469214384698F
:10088000214311431960002141630122427701771E
:10089000084630BD012030BDF8FFFDBF000002401A
:1008A00070B5044600F010F90546601C02D00448FB
:1008B0000078044400F008F9401BA042FAD370BD50
:1008C000400000202DE9F84FDFF8B8910024A9F18D
:1008D000040B23460F2709F1040AABF1040EC9E00B
:1008E0000125A5402A40AA427DD1674ED1F804C017
:1008F000ACEB0608B44532D014DCBCF1030F3AD09F
:1009000009DCBCF1000F2AD0BCF1010F1CD0BCF1F6
:10091000020F31D11DE0BCF1110F17D0BCF1120F45
:100920002AD119E0B8F5881F19D006DCB8F5803F48
:1009300015D0B8F5801F1FD111E0B8F5001F0ED0FB
:10094000B8F5041F18D10AE0CB6815E0CB681B1D71
:1009500012E0CB6808330FE0CB680C330CE08B68F7
:100960002BB1012B4FF0080303D0456104E00423B1
:1009700002E0056100E00023FF2A01D8064601E0FD
:1009800000F104064FEA840501D9A5F12005D6F847
:10099000008007FA05FC28EA0C0803FA05F548EA86
:1009A0000508C6F800804D68ED0062D5374DAE6988
:1009B00046F00106AE61AD6924F0030605F00105BD
:1009C0000095334D06EB050CDCF80850A607360FF2
:1009D00007FA06F825EA0805DFF8B880404503D194
:1009E0004FF0000817E044E0DFF8AC80404502D14A
:1009F0004FF001080FE0DFF8A480404502D14FF02E
:100A0000020808E0DFF89880404502D14FF0030863
:100A100001E04FF0040808FA06F848EA0508CCF8A7
:100A200008804D68D9F80060ED024D4601D51643A7
:100A300000E096432E604D68DAF80060AD0255463E
:100A400001D5164300E096432E604D68DBF8006048
:100A5000AD035D4601D5164300E096432E604D6818
:100A6000DEF80060ED03754601D5164300E09643BD
:100A70002E60641C0D682A46E5407FF431AFBDE866
:100A8000F88F00000804014000001110001002401F
:100A90000000014000080140000C0140001001402E
:100AA000001401408068084000D001207047C268EF
:100AB00021EA02030A4043EA0241016170470AB198
:100AC000016170470904FBE7014880687047000036
:100AD0004000002070B516480168164A127811448B
:100AE0000160154CE07B00281DD0FFF749FC134D39
:100AF0004FF480712846FFF7D5FFA8B100210E48BA
:100B00003430FFF715FC00B160734FF400712846D4
:100B1000FFF7C8FF50B1002107483A30FFF708FC43
:100B2000002800D0A07370BD0121E8E70121F3E7A0
:100B3000480000204000002000000020000C014080
:100B4000074810B5016841F010010160032000F072
:100B500075F80F2000F006F800F024F8002010BD12
:100B60000020024070B50D4D04464FF47A7128788C
:100B7000B1FBF0F00A490968B1FBF0F000F06DFC40
:100B800048B9102C07D200222146501E00F036F83A
:100B900000206C6070BD012070BD0000400000208E
:100BA0004C0000200C4808B5816941F001018161C9
:100BB000816901F001010091C16941F08051C16179
:100BC000C06900F0805000900448416821F0E06165
:100BD00041F00071416008BD00100240000001407A
:100BE000002809DB00F01F0201219140400980002C
:100BF00000F1E020C0F8001170470000F0B40E4B87
:100C00001B680C46C3F30223C3F10705042D00D96A
:100C10000425191D072901D2002300E0DB1E01264F
:100C200006FA05F1491E214099409E40761E164065
:100C30003143F0BC01F024BA0CED00E0064900F0AD
:100C4000070208684FF6FF03184040EA0220034AF3
:100C500010430860704700000CED00E00000FA054A
:100C60002DE9F84305460078354CC00754D0E069BB
:100C70000026C00008D4E06940F08050E061E069DF
:100C8000012600F0805000902E480168C90512D45A
:100C90000168804641F480710160FFF715FF074647
:100CA00005E000BFFFF710FFC01B642823D8D8F869
:100CB0000000C005F6D5206A10F4407021D0A98844
:100CC00001F4407181421CD0206A1F49012220F4A6
:100CD00040700A6000220A602062C00711D0FFF74E
:100CE000F3FE074641F2883808E000BFFFF7ECFE4C
:100CF000C11B414502D90320BDE8F883206A800763
:100D0000F4D5206A696820F44070084320621EB15F
:100D1000E06920F08050E0612878800705D56068A0
:100D2000A96820F44040084360602878C00605D5D3
:100D30006068E96820F48000084360600020DBE719
:100D40000010024000700040400442422DE9F0478C
:100D50000F46050061D0434E306800F00700B842EE
:100D600009D2306820F0070038433060306800F066
:100D70000700B84251D128683B4C810712D5400783
:100D800003D5606840F4E06060602878000703D510
:100D9000606840F4605060606068A96820F0F0000E
:100DA000084360602878C00728D06868012810D000
:100DB0002168022810D0890700292EDA616821F005
:100DC000030101436160FFF77FFE804641F28839ED
:100DD0000DE021688903EFE78901EDE7FFF774FE75
:100DE000A0EB0801494502D90320BDE8F0876068FF
:100DF000696800F00C00B0EB810FEFD1306800F0B3
:100E00000700B8420BD9306820F007003843306043
:100E1000306800F00700B84201D00120E5E72878EB
:100E2000400705D56068E96820F4E0600843606029
:100E30002878000706D56068296920F4605040EAE8
:100E4000C100606000F018F86168084AC1F303113E
:100E5000515CC8400649086006480068FFF782FEFA
:100E60000020C2E70020024000100240E2220008F9
:100E70004C000020440000200E4A51680E4801F04A
:100E80000C03042B11D0082B0FD10C48C1F3834362
:100E9000C903C05C0AD55168084AC1F34041921E9B
:100EA000515C054A5043B0FBF1F070470449484398
:100EB000704700000010024000127A00D2220008A1
:100EC00000093D002DE9F84F040070D02078C04D96
:100ED000C00749D06868C0F38100012807D068685E
:100EE000C0F38100022809D16868C00306D52868CC
:100EF000800339D560680028E7D035E06068B0F538
:100F0000803F0BD010B1B0F5A02F11D0286820F48D
:100F100080302860286820F4802002E0286840F4AF
:100F200080302860606890B1FFF7CEFD06460AE089
:100F3000286840F480202860F0E700BFFFF7C4FD78
:100F4000801B642873D828688003F7D50CE0FFF76E
:100F5000BBFD064605E000BFFFF7B6FD801B642819
:100F6000F0D828688003F7D420789A4E80074FF095
:100F700001094FF0000839D5686810F00C0F07D050
:100F80006868C0F38100022809D16868C00306D4EC
:100F90002868800714D52069012808D110E020694D
:100FA000B0B1C6F80090FFF78FFD074605E00AE1F3
:100FB000FFF78AFDC01B0228C4D828688007F7D530
:100FC0002868616920F0F80040EAC10028600DE05F
:100FD000C6F80080FFF778FD074604E0FFF774FDD0
:100FE000C01B022823D828688007F7D42078000780
:100FF0002CD57948A169D9B1C0F80090FFF764FDFC
:10100000074604E0FFF760FDC01B02280FD8686A9E
:101010008007F7D571484FF4FA510068B0FBF1F042
:10102000009000BF0098411E0091FAD20EE080E0CF
:10103000C0F80080FFF748FD074604E0FFF744FDD5
:10104000C01B022875D8686A8007F7D4207840074B
:1010500060D5E8690027C00008D4E86940F08050F6
:10106000E861E869012700F0805000905C48016861
:10107000C90513D40168834641F480710160FFF70C
:1010800023FD824606E000BFFFF71EFDA0EB0A002D
:1010900064284ED8DBF80000C005F5D5E0680128CB
:1010A0000AD008B1052813D0286A20F00100286270
:1010B000286A20F0040002E0286A40F0010028625B
:1010C000E06841F2883B98B1FFF7FEFC82460BE0F6
:1010D000286A40F004002862EEE700BFFFF7F4FC46
:1010E000A0EB0A0159455AD8286A8007F6D50CE0CA
:1010F000FFF7EAFC824605E0FFF7E6FCA0EB0A01F9
:1011000059454CD8286A8007F6D41FB1E86920F009
:101110008050E861E06988B36968C1F38101022900
:1011200044D00228C6F8608004D0FFF7CDFC044606
:1011300038E034E0FFF7C8FC074604E0FFF7C4FCE2
:10114000C01B02282BD828688001F7D4206AB0F58C
:10115000803F05D16868A16820F4003008436860CA
:10116000D4E908010843696821F4741108436860F0
:10117000C6F86090FFF7A8FC044606E025E000BF33
:10118000FFF7A2FC001B022809D828688001F7D5C8
:101190001BE000BFFFF798FC001B022802D90320C8
:1011A000BDE8F88F28688001F4D40EE00128F7D05C
:1011B0006868226A00F48031914204D1616A00F4C7
:1011C0007010884201D00120EAE70020E8E7000023
:1011D0000010024000004242800442424C000020C5
:1011E0000070004070B5040009D0606A002540B16D
:1011F00025616561A56294F8510040B10CE00120C1
:1012000070BD6068B0F5827FF4D0E561F2E784F8E4
:101210005050204600F040F8022084F85100206829
:10122000016821F040010160A088218900F48270EA
:1012300001F404410843A18901F400610843217CC1
:1012400001F002010843217D01F001010843218BD7
:1012500001F400710843217F01F03801084394F83C
:10126000201001F080010843218D01F40051084352
:1012700021680860A069042101EA104021684860E3
:101280002068C16921F40061C1616565012084F8AD
:101290005100002070BD000000B585B00021009114
:1012A00001910291039100680F4988421AD10F48B9
:1012B000816941F480518161816901F48051049117
:1012C000816941F0040181618069694600F0040090
:1012D0000490A02000900220019003200390044875
:1012E000FFF7F0FA05B000BD0030014000100240E9
:1012F000000801402DE9F84F984616468A460446F4
:10130000FFF7E2FB814694F8510001281ED1BAF1A3
:10131000000F73D0002E71D094F85000012815D022
:10132000012784F85070032084F85100002565657A
:10133000C4F830A0A686E686A563A587E587656420
:101340002564A068B0F5004F03D00CE00220BDE892
:10135000F88F2068016821F0400101602068016871
:1013600041F48041016020680168490603D40168A6
:1013700041F040010160E068B0F5006F606803D0A3
:1013800048B3012E27D047E008B1012E1FD1206BB2
:1013900021680088C86006E020688168890709D54F
:1013A000216B0988C160206B801C2063E08E401E89
:1013B000E0860CE0FFF788FBA0EB0901414503D371
:1013C000B8F1FF3F03D035E0B8F1000F32D0E08E26
:1013D0000028E1D123E0206B21680078087306E043
:1013E0002068816889070AD5216B09780173206B11
:1013F000401C2063E08E401EE0860DE02BE0FFF7EE
:1014000063FBA0EB0901414503D3B8F1FF3F03D0D3
:1014100010E0B8F1000F0DD0E08E0028E0D14A4670
:101420004146204600F070FB08B120206065A068AE
:1014300030B109E084F8517084F85050032086E7F9
:101440002068C1688068009084F8517004F8505F8B
:1014500060680028F3D0012079E710B5401EB0F194
:10146000807F01D3012010BD4FF0E02460610F2187
:10147000601700F005FE0020A06107202061002019
:1014800010BD10B590F83C20012A22D0012280F82E
:101490003C20CA688C6822F4407222434C6822F4D3
:1014A000806222430C6822F4006222430C6922F419
:1014B000805222434C6922F400522243C96900231E
:1014C00022F480420A4301684A6480F83C300020DC
:1014D00010BD022010BD000070B590F83C20012A1C
:1014E00026D0012480F83C40022280F83D20036889
:1014F0005A689D6822F070060A6832435A600D4BA4
:1015000002689A4208D0B2F1804F05D00A4B9A4245
:1015100002D00A4B9A4204D1496825F0800319434E
:10152000916080F83D40002180F83C10084670BD75
:10153000022070BD002C0140000400400008004063
:1015400010B5040003D094F83D0010B107E001206D
:1015500010BD002084F83C00204600F01FF8022057
:1015600084F83D00211D206800F076FC012084F8FD
:10157000460084F83E0084F83F0084F8400084F878
:10158000410084F8420084F8430084F8440084F861
:10159000450084F83D00002010BD000008B50C4A4D
:1015A00001680C48914207D1816941F40061816171
:1015B000806900F4006009E0B1F1804F07D1C16992
:1015C00041F00101C161C06900F00100009008BD57
:1015D000002C01400010024070B5044690F83C0019
:1015E0000025012817D0012684F83C60022084F8E9
:1015F0003D002068826822F0770222F47F428260F8
:101600000868502838D00DDC20284FD005DC90B376
:10161000102811D14AE0022070BD302846D0402861
:101620000AD13BE060282FD070280DD0B0F5805F44
:1016300003D0B0F5005F12D0012584F83D60002092
:1016400084F83C00284670BDCB68D1E901212068B0
:1016500000F03EFC2068816841F0770109E0CB682A
:10166000D1E90121206800F033FC2068816841F451
:1016700080418160E1E719E0CA684968206800F0AC
:10168000DBFC5021206806E0CA684968206800F049
:10169000E4FC6021206800F025FCCEE7CA684968B8
:1016A000206800F0C9FC40212068F4E72268014668
:1016B0001046F0E700B585B000210091019102913C
:1016C000039100680B49884212D10B48816941F0AF
:1016D000040181618069694600F0040004904FF4C0
:1016E000807000900220019003900448FFF7EAF810
:1016F00005B000BD002C0140001002400008014070
:1017000070B5044690F83C0000260D4601280FD025
:10171000012084F83C006AB1042A1DD0082A2FD089
:101720000C2A3FD00126002084F83C00304670BDD2
:10173000022070BD206800F0DDFB2068816941F067
:10174000080181612068816921F0040181612068BC
:1017500081692A69114311E0206800F0F3FB2068D9
:10176000816941F4006181612068816921F48061AF
:101770008161206881692A6941EA02218161D2E799
:10178000206800F00BFC2068C16941F00801C161CC
:101790002068C16921F00401C1612068C1692A691A
:1017A000114311E0206800F025FC2068C16941F474
:1017B0000061C1612068C16921F48061C161206854
:1017C000C1692A6941EA0221C161ACE710B5040090
:1017D00003D094F83D0010B107E0012010BD0020B7
:1017E00084F83C00204600F01EF8022084F83D00FA
:1017F000211D206800F030FB012084F8460084F8A9
:101800003E0084F83F0084F8400084F8410084F8EA
:10181000420084F8430084F8440084F8450084F8CA
:101820003D00002010BD7047FEE700002DE9F041AB
:10183000054600244FF400570D4E10E000223946B3
:101840003046FFF73CF99620FFF72AF80122394687
:101850003046FFF734F99620FFF722F8641CAC42BB
:10186000ECDBBDE8F0414FF41670FFF719B800004B
:10187000001001403EB500240F48009401940294EA
:101880000C498460016004730475012505614FF4FF
:1018900060214460C161FEF755FE40B9CDE90045C5
:1018A000694605480295FEF7CFFD002801D0FEF7F6
:1018B0009FFD3EBD002401407002002070B586B03F
:1018C00000241C480094019402940394816941F01F
:1018D00020018161816901F020010491816941F059
:1018E00004018161816901F004010491816941F081
:1018F000080181618069104E00F0080040F2034544
:101900000490012229463046FFF7D9F80320CDE99B
:10191000024000950125694601953046FEF7D2FF49
:101920004FF440708DE8310069463046FEF7CAFF3B
:1019300006B070BD00100240000C01400F4810B509
:101940000D4901604FF48271416000218160C160E6
:101950004FF400720161C0E905121022C0E90721AD
:10196000416281620A21C162FFF73CFC002801D07C
:10197000FEF73EFD10BD000000300140E4020020F3
:1019800010B596B000240F941094119412941394EF
:101990001C2108A81494FEF717FC20216846FEF7C6
:1019A00013FC2448224901604721C0E9011440F298
:1019B000E731C0E9031444618461FFF7C1FD80BBD6
:1019C0004FF480500F900FA91A48FFF705FE40BB57
:1019D0001848FFF7FBFE20BB139413A91548149475
:1019E000FFF77AFDE8B9602008904FF4FA70CDE96E
:1019F00009040B940C940D94002208A90D480E9430
:101A0000FFF77EFE68B900944FF40050CDE9044022
:101A1000029401940394694606480794FFF731FD48
:101A200008B1FEF7E5FC0348FFF744FE16B010BD11
:101A3000002C01403C03002010B586B0002414485F
:101A4000009401940294039404944FF0804105940F
:101A500001604721C0E901140921C0E90314846130
:101A6000FFF76EFD80B94FF480500090694608483A
:101A7000FFF7B2FD40B92020CDE9040404A90448D1
:101A8000FFF72AFD002801D0FEF7B2FC06B010BD1A
:101A900084030020FEE7FEE77047000000B585B034
:101AA000002002901548816941F00401816181693B
:101AB00001F004010491816941F0010181618169B2
:101AC00001F001010491816941F4805181618069D3
:101AD00000F4805004900A48416821F0010141F06F
:101AE000E0614160A020009002200190032003905B
:101AF00069460448FEF7E6FE05B000BD001002404E
:101B00000000014000080140F8B515460E460B469E
:101B1000009204460122022100F010F840B9334639
:101B2000002280212046009500F008F8002804D00B
:101B3000606D40F0200060650320F8BD2DE9F8439A
:101B40001E46914688460446089DFEF7BDFF401B91
:101B5000351AFEF7B9FF074625480068C0F3CB30B9
:101B6000684338E0701C37D0FEF7AEFFC01BA842B8
:101B700003D215B1009860B32CE02068416821F0D1
:101B8000E00141606068B0F5827F0BD1A068B0F5DC
:101B9000004F02D0B0F5806F04D12068016821F0B9
:101BA00040010160A06AB0F5005F09D120680168BA
:101BB00021F4005101602068016841F40051016086
:101BC000012084F85100002084F850000320BDE873
:101BD000F8830025401E00902068816838EA0100E3
:101BE00004D000214945BDD10020F0E70121F9E7EB
:101BF0004C0000202DE9F04110F8015B044617E08D
:101C0000207800F0C7F86078A41C00F0800730F05E
:101C1000800604D03146204600F0CEF834443FB16F
:101C200014F8010BFF2801D14FF4FA70FEF738FECB
:101C30006D1EEDB2E4D2BDE8F08100002DE9F8435D
:101C40001F46DDF8208014460D46064680283BD20C
:101C5000A02D39D23019401E802802DBC6F1800049
:101C600084B2E819401EA02802DBC5F1A00087B2AB
:101C700000F05EF8E819401EC3B23019401EC2B22F
:101C8000E9B2F0B200F05CF84FEA18208DF80000DD
:101C900001228DF8018011460C48FEF710FF4FF02D
:101CA000FF360DE0254607E0334602226946084824
:101CB000FFF720FB6D1EADB2002DF5D17F1EBFB228
:101CC000002FEFD100F05EF8BDE8F883000C014072
:101CD000E402002008B500210090A02380220846DD
:101CE000FFF7ACFF08BD000010B500F021F80E4C66
:101CF000002202212046FEF7E2FE0520FEF7D0FD7D
:101D0000012202212046FEF7DAFE0848FFF772FFA3
:101D100006483B30FFF76EFF04484830FFF76AFF84
:101D2000BDE8104000F02EB8000C0140B4210008BE
:101D300000224FF480610148FEF7C1BE000C014053
:101D4000F8B507461C4615460E462A2000F022F834
:101D5000002000908DF801708DF803500421684632
:101D600000F02AF82B2000F015F88DF801608DF8AE
:101D700003400421684600F01FF82C2000F00AF808
:101D8000F8BD0000012291020148FEF798BE000054
:101D9000000C014001B5002201210548FEF78FFE2D
:101DA0004FF0FF33012269460248FFF7A3FA08BD4E
:101DB000000C0140E402002070B50D4604460122EB
:101DC00011460648FEF77BFEAAB22146BDE87040E8
:101DD0004FF0FF330248FFF78DBA0000000C0140BE
:101DE000E40200207047FEF775BE30B593B028219D
:101DF0006846FEF7E9F914210AA8FEF7E5F900257F
:101E000001200F9510951195010412958DE823007E
:101E100004904FF4E010CDE90810022407946846BE
:101E2000FFF750F898B90AA90F2081E83100600245
:101E3000CDE90D0502210AA8FEF788FF38B9A003F5
:101E400011900F940FA8FEF70BFF002801D0FEF7AA
:101E5000CFFA13B030BD7047F0B50268194B1A4C79
:101E60001A4D4FF08047984205D0B84203D0A042A7
:101E700001D0A84203D122F070064A68324398424A
:101E800005D0B84203D0A04201D0A84203D122F429
:101E90004074CA6822434C6922F0800222430260E7
:101EA0008A68C2620A688262984201D10969016344
:101EB000012141610169C90703D0016921F00101D4
:101EC0000161F0BD002C014000040040000800400A
:101ED00010B5846842EA032224F47F440A43224373
:101EE000826010BD826822F070020A4342F007014E
:101EF0008160704730B5036A026A22F00102026213
:101F00004268846924F073050C682C4323F00205B1
:101F10008B682B430A4DA8420BD123F00805CB68F0
:101F200022F440722B434D6923F0040315438A6960
:101F30002A434260846149684163036230BD000006
:101F4000002C014030B5026A036A23F010030362DB
:101F5000436884690D6824F4E64444EA05248D68E6
:101F600022F0200242EA05120B4DA8420ED1CD68A4
:101F700022F0800242EA05124D6923F4406343EAED
:101F800085038D6922F0400243EA85034360846142
:101F900049688163026230BD002C014030B5036A9C
:101FA000026A22F4807202624268C46923F40073F8
:101FB00024F073050C682C438D6843EA05230C4D0F
:101FC000A8420ED1CD6823F4006343EA05234D698E
:101FD00022F4405242EA05128D6923F4806342EAFA
:101FE00005124260C4614968C163036230BD0000EC
:101FF000002C014030B5046A026A22F48052026269
:102000004268C3690D6823F4E64343EA05238D68FB
:1020100024F4005444EA0534064DA84204D14D6925
:1020200022F4804242EA85124260C3614968016439
:10203000046230BD002C014010B5036A046A24F02C
:1020400001040462846924F0F00444EA021423F0D9
:102050000A020A438461026210BD10B5036A046A71
:1020600024F010040462846923F0A00324F4704473
:1020700044EA023243EA01118261016210BDFEE7C7
:102080000907090E002804DB00F1E02080F80014A5
:10209000704700F00F0000F1E02080F8141D704739
:1020A00086B0FEF74DFD3F4C00250295A06940F03B
:1020B0001000A061A069DFF8F08000F0100004902B
:1020C00002204FF400560127039069464046CDE9AF
:1020D0000067FEF7F7FB012231464046FEF7EFFCB2
:1020E000FFF783FEFFF7EAFB606940F001006061E3
:1020F0006069002200F00100009011460B20FEF7FD
:102100007DFD0B20FEF76CFDFFF7B4FBFFF716FC1F
:10211000FFF736FCFFF790FC0220FFF787FB0195E5
:102120000395A06940F00100A061A06900F00100E2
:1021300004901E48416821F0E06141F00071416067
:10214000A06940F00800A061A069694600F008009D
:1021500004903020009002971548FEF7B3FBFEF77D
:10216000C9F8FFF79BFCFFF7BFFD0320FFF75EFBFD
:102170004FF478454FF4FA744FF4FC662846FFF7A5
:10218000A9FD2046FEF78CFB3046FFF7A3FD204655
:10219000FEF786FB1F20FFF79DFD2046FEF780FB24
:1021A000ECE7000000100240001001400000014078
:1021B000000C01400F0180961180FFB103012C2D0E
:1021C000B203012C2DB306012C2D012C2DB40107D7
:1021D000C003A20284C101C5C2020A00C3028A2A46
:1021E000C4028AEEC5010E20003601C03A01050284
:1021F0002A040000007F2B040000007F04E010028E
:102200001C07123732292D29252B3900010310E133
:1022100010031D07062E2C292D2E2E373F000002FD
:102220001013800A29806400020005000A001400CF
:1022300032006400C800F401E803000050230008E5
:102240003823000840230008482300082C230008F6
:1022500030230008342300081C230008242300082E
:10226000CDCCCC3DCDCC4C3E0000003F0000803FAB
:10227000000000400000A0400000204104230008AE
:102280000C23000814230008F8220008FC22000890
:1022900000230008F4220008CF020F2747000F2771
:1022A0004700E7034700C7004700630064230008B6
:1022B000582300087C2300088823000870230008A6
:1022C00000FF0100010000FFFF0000010001FF000E
:1022D000010202030405060708090A0B0C0D0E0F84
:1022E00010100000000000000000010203040607B7
:1022F0000809000031305600315600003256000007
:10230000355600003130306D560000003230306DEF
:10231000560000003530306D5600000031306D73CE
:102320000000000032306D7300000000316D73005A
:10233000326D7300346D73003130307573000000FE
:102340003230307573000000343030757300000097
:10235000343075730000000050574D3A313030482A
:102360007A00000050574D3A3130487A00000000A2
:1023700050574D3A31306B487A00000050574D3A73
:10238000316B487A0000000050574D3A356B487A5F
:1023900000000000B42300080000002050000000EE
:1023A000280100080424000850000020800E0000CE
:1023B00044010008030101010000000003000000C7
:1023C0000000000000000000030000000300000007
:1023D0000000000014080000140800000000803F06
:1023E00000000000020000000000000000000000EB
:1023F00000000000010000001000000000000000CC
:0424000000127A004C
:04000005080000ED02
:00000001FF
