:020000040800F2
:10000000780A0020A901000817300008352D0008E3
:100010001530000801140008C93B0008000000006A
:10002000000000000000000000000000D1360008C1
:100030003B1400080000000019300008D336000807
:10004000C3010008C3010008C3010008C301000880
:10005000C3010008A5320008C3010008C30100085D
:10006000C3010008C3010008B51400080514000806
:10007000C3010008C3010008C3010008C301000850
:10008000C3010008C3010008C3010008C301000840
:10009000C3010008C3010008C3010008BB14000825
:1000A000C3010008C3010008C3010008C301000820
:1000B000C3010008C3010008C3010008C301000810
:1000C000C3010008C3010008C3010008C301000800
:1000D000C3010008C3010008C3010008C3010008F0
:1000E000C3010008C3010008C301000800F002F8C2
:1000F00000F04AF80AA090E8000C82448344AAF178
:100100000107DA4501D100F03FF8AFF2090EBAE875
:100110000F0013F0010F18BFFB1A43F0010318473B
:100120002047000040470000103A24BF78C878C13B
:10013000FAD8520724BF30C830C144BF04680C60ED
:10014000704700000023002400250026103A28BF35
:1001500078C1FBD8520728BF30C148BF0B60704739
:10016000662904F07A81732900F0738300207047B8
:100170001FB500F073FB04000020002103F0AAFD6E
:10018000E0601FBD10B510BD00F068FC1146FFF720
:10019000EFFF03F045FD00F086FC03B4FFF7F2FF2C
:1001A00003BC00F0C9FC000009488047094800472B
:1001B000FEE7FEE7FEE7FEE7FEE7FEE7FEE7FEE717
:1001C000FEE7FEE704480549054A064B7047000074
:1001D0004F370008ED00000878040020780A00205E
:1001E00078060020780600200FB41CB5074B06AA3D
:1001F0007B4469460090059800F001FB00206946A9
:1002000000F010FB1CBC5DF814FB00003106000080
:1002100070B50C460546012A05D02878800600D521
:10022000EA69002302E0012305E05B1C934202D24D
:10023000E05C0028F9D1A869E618C01AA861286A0C
:10024000184428622846AFF3008004E0D5E9012174
:1002500014F8010B9047B442F8D32846AFF300805E
:1002600070BD2DE9F0474FF0000A89460446C0F8FA
:1002700020A02046E1688847002876D0252806D0AF
:10028000D4E901219047206A401C2062F1E7E1682F
:10029000204600258847C4F81CA006460027C4F85D
:1002A00018A02A2E09D0304603F0B3FC38B304EB73
:1002B0008708303EC8F8186019E059F8041B20463A
:1002C00004EB87029161E1688847012F064618D147
:1002D000E069002820DA25F020051DE0D8F8180094
:1002E00000EB800006EB40003038C8F818002046CC
:1002F000E1688847064603F08CFC0028EED1012F08
:100300000AD02E2E08D12046E16888477F1C064679
:10031000022F45F02005C4DBA069002803DA404223
:1003200045F00105A061E80701D025F01005B6B140
:10033000A6F14100192802D8203645F400654A4646
:100340003146204625604D46FFF70AFF58B1012887
:1003500006D0ED1D25F0070000F1080989E704E04B
:1003600005F1040985E730468AE7206ABDE8F08791
:100370004FF0000200B5134694469646203922BF3E
:10038000A0E80C50A0E80C50B1F12001BFF4F7AF89
:10039000090728BFA0E80C5048BF0CC05DF804EB6B
:1003A000890028BF40F8042B08BF704748BF20F8D9
:1003B000022B11F0804F18BF00F8012B70477047D7
:1003C0007047704710B500F04DFA006810BD10B5C9
:1003D000044600F047FA046010BD70472DE9FF4F56
:1003E0000C461E464FF0FF378BB0D2E90001DDF816
:1003F00060800A908A46C1F30A5505B93D4600213E
:1004000008464FF00000BAF1000F00F4400005DA92
:1004100000EB80004FF4400101EA50004FEA905990
:10042000B9F1010F00DDB9460A9850EA4A000ED032
:1004300044F61050A5F2FF3545432F14B8F1000FD4
:100440001ED07542291E1EDDC9F100021CE0B8F164
:10045000010F4FF0000001D0302103E0F24305E02E
:100460002154401CB042FBDB3046002200212154C5
:100470000B99C1F80880C1E900200FB0BDE8F08FEA
:10048000BD1B6D1CDEE74A4600DA694206A800F093
:1004900073FA06AB93E8070003AB83E80700504606
:1004A0000A9900F050FB8DE80700A0F500501F38B6
:1004B00000900398002D09DD42F21F014A460844CE
:1004C00003A90390684600F0AFFD08E0A0F50050D6
:1004D0004A461F3803A90390684600F0B9FD8DE82D
:1004E00007000004000C03D04FF0FF30410800E08B
:1004F0001046B8F1000F03D00022009215461EE00E
:10050000751E05D400F0B2F9303262556D1EF9D572
:10051000B3460122084302D000227F1C04E0207869
:10052000302801D100227F1E002A099786D01DE0C5
:10053000112D07DA00F09AF9303262556D1C50EA3D
:100540000102F5D1084302D00098C8B10EE00021A5
:10055000681E05E0235C625C63542254401E491C03
:100560008142F7DBAB46A81B401E0990002004F82F
:100570000B000B98099AC0F80880C0E9002B7CE7B3
:1005800011264FF0000859E72DE9F04F8846044640
:10059000D21D22F0070191B0D1E90001CDE90A0195
:1005A00003F013FB02460B98C00F01D02D2007E08B
:1005B0002068810701D52B2002E0202101EAC0003C
:1005C000032A099001D0072A05DB0346414620464D
:1005D00000F092F90BE12078800601D5E06900E097
:1005E0000620B8F1650F814606D0B8F1660F18D025
:1005F000B8F1670F70D131E00020B9F1110F009010
:1006000001DB112301E009F101030AAA01A90CA8E9
:10061000FFF7E4FEDDE90C70002609F101058346D1
:1006200047E001204B4600904FF000470AAA01A97D
:100630000CA8FFF7D3FEDDE90DB00C995D4600264E
:1006400010B909F101000D18B9EB050003D4C0F190
:10065000FF3609F10105A5EB09002BE0B9F1010F07
:1006600001DA4FF001090020B9F1110F009048465E
:1006700001DD112300E003460AAA01A90CA8FFF737
:10068000ADFEDDE90C704D4600268346207800075C
:100690000AD4AB4500DA5D4601A8012D04DD4119FD
:1006A00011F8011C302907D04F4502DA17F1040F69
:1006B00004DA012082460FE06D1EEEE7002F02DC17
:1006C000ED1B3E4403E0781CA84200DD7D1CB81BF6
:1006D00000F1010A4FF000472078000703D4AA4533
:1006E00001DB4FF0FF3A0021B7F1004F0DF1430855
:1006F0008DF8431024D002202B23002F01DA7F42F3
:100700002D230A21021EA0F1010000DC5FB197FB3E
:10071000F1FC97FBF1F201FB1C7C17460CF1300C4D
:1007200008F801CDEEE7A8F1010003702188090562
:1007300001D5452100E06521A0F1010800F8011C68
:1007400009980FA9A1EB0807FF1D00B1012041196D
:1007500001EBEA70A1693844081A401EA0612078B4
:10076000C00602D42046AFF30080099828B1D4E92E
:1007700001219047206A401C20622078C00622D5C3
:100780002046AFF300801EE0002E04DBB34502DDFF
:1007900001A8805D00E03020D4E901219047206A63
:1007A000401C2062761CAAF101005FEA000A0AD10F
:1007B00000F054F8C0680168405CD4E9012190471A
:1007C000206A401C2062281EA5F10105DCDC07E040
:1007D000D4E9012118F8010B9047206A401C2062DF
:1007E000381EA7F10107F3DC2046AFF30080032099
:1007F00011B043E601694A1C02610878704700B5F0
:100800008FB0CDE901310021059105497944CDE949
:10081000031011466846FFF724FD0FB000BD00002D
:10082000E5FFFFFF0A6802F8010B0A60704710B588
:10083000436913B1AFF3008001E0FFF7E9FC012049
:1008400010BD127800F124010A7000224A700122C2
:10085000EDE711684FF0FF32E9E70000004870470C
:1008600034040020004870471404002030B5B0F173
:100870000A024FEA900E71F100034EEA817EB0EB5E
:100880000E0061EB91014FEA101E4EEA017E10EB63
:100890000E0041EB11114FEA102E4EEA016E10EBE3
:1008A0000E0041EB11214FEA104E4EEA014E10EBC3
:1008B0000E0041EB1141401841F100014FEAD00018
:1008C00040EA41704FEAD10110EB80054FEA810404
:1008D00044EA907444EB01046D1944EB0404521B88
:1008E000A3414FF0000348BF0A3200D530BD401C81
:1008F00041F1000130BD00002DE9F0411F460446E2
:1009000003260168072A01F4006004DB08B116A57C
:1009100005E016A503E008B115A500E015A521F036
:1009200010002060A069C01EA0610FB1401EA06130
:100930002046AFF300804FB1D4E9012138469047FB
:10094000206A401C2062C01C206206E0206AFAE790
:10095000D4E9012115F8010B9047761EF8D2204604
:10096000AFF30080BDE8F0814E414E006E616E0035
:10097000494E4600696E66002DE9F04781461646ED
:100980008AB0334878440DC88DE80D00304878446B
:10099000801C03AC0DC884E80D0041F69B30084470
:1009A000372190FBF1F290FBF1F5A5F1800501FBF9
:1009B00012041B3C02D56442012000E00020DFF855
:1009C00090A080460027FA44AAF1BE0A0DE0E00795
:1009D00009D03246684607EB47010AEB810100F077
:1009E00037FB8DE8070064107F1C002CEFD1184FF7
:1009F0007F44AC3F18E0E80714D007EB04100DF17A
:100A0000180A90E80E008AE80E00C068F04201D192
:100A100098190890324606A903A800F019FB03AB09
:100A200083E807006D10641C002DE4D1324669464E
:100A3000B8F1000F03A802D000F0F6FA01E000F0D0
:100A400007FBC9E90001C9F808200AB0BDE8F08732
:100A50006C3E000000487047140400207546FFF704
:100A6000F9FFAE4605006946534620F0070085466B
:100A700018B020B5FFF7A6FBBDE820404FF00006F8
:100A80004FF000074FF000084FF0000B21F0070176
:100A9000AC46ACE8C009ACE8C009ACE8C009ACE8B9
:100AA000C0098D46704710B50446AFF3008020465C
:100AB000BDE81040FFF771BB4FF0013C50F8042B2C
:100AC00051F8043B9A4221D1A2EB0C03934313EA61
:100AD000CC1317D150F8042B51F8043B9A4215D18E
:100AE000A2EB0C03934313EACC130BD150F8042B65
:100AF00051F8043B9A4209D1A2EB0C03934313EA49
:100B0000CC13DBD04FF00000704700BFD01A01BA01
:100B1000B1FA81F101F0180122FA01F0CB40C1F1E4
:100B20002001DBB2C0B2C01A2CFA01F3D11A9143F2
:100B300011EAC311E6D1704701491820ABBEFEE7A8
:100B40002600020070475FEA400C08BF91F0000FDA
:100B50004FEA8C234FEAC12243EA51514FEA1C501D
:100B600018BF00F5F0404FEA300018BF41F00041D7
:100B70005FEA6C5C00F02980BCF1FF3F08BF40F0E9
:100B800080407047130C06BF12044FF0100C4FF05A
:100B9000000C130E04BF12020CF1080C130F04BF5B
:100BA00012010CF1040C930F04BF92000CF1020C23
:100BB000D30F04BF52000CF1010C11464FF000029C
:100BC000A0F11F00A0EB0C00704711F0004F08BF10
:100BD000704731F000413FF4D5AF0B0C06BF09045C
:100BE0004FF0100C4FF0000C0B0E04BF09020CF17B
:100BF000080C0B0F04BF09010CF1040C8B0F04BF90
:100C000089000CF1020CCB0F04BF49000CF1010C60
:100C1000CCF12003A0EB0C0022FA03F302FA0CF251
:100C200041EA030100F10100704720F07F4C80EAA7
:100C3000030023F07F47ACEB070303F57C5300F080
:100C4000004003F1FF032DE980494FEA154B09B439
:100C50004FEA144325EA0B4E24EA03480FF2042618
:100C600006EB132749083E785FEA320203FB06676A
:100C7000C7F5000707FB06F64FEA54374FEAD6469A
:100C800006F1020607FB066CCCF1005C4FEA1C473C
:100C90002CEA074C07FB06F40CFB06F504EB1546A3
:100CA0004FEA961634BF00204FF000404FEAD1378C
:100CB00006FB07FC4FEA1C4C0CFB0BF7D21B03FB9B
:100CC0000CF761EB07010CFB0EF7B0EB074072EB82
:100CD00017420CFB08F734BFA2EB0742B2EB074206
:100CE00061EB17414FEA0C444FEA910706FB07FC02
:100CF0004FEA1C4C0CFB0BF7B0EBC74072EB5732C2
:100D000003FB0CF734BFA2EBC742B2EBC74261EB67
:100D100057310CFB0EF7B0EBC70072EB57720CFBB0
:100D200008F734BFA2EBC702B2EBC70261EB577101
:100D3000039F4FEA816141EA921104EBCC044FEA30
:100D4000D1374FEA826206FB07FC42EA90124FEA73
:100D500080604FEA1C4C0CFB0BF7D21B03FB0CF71B
:100D600061EB07010CFB0EF7B0EB074072EB17428B
:100D70000CFB08F734BFA2EB0742B2EB074261EB72
:100D800017414FEA8C554FEA910704EB9C2406FB70
:100D900007FC4FEA1C4C0CFB0BF7B0EBC74072EBA7
:100DA000573203FB0CF734BFA2EBC742B2EBC7428A
:100DB00061EB57310CFB0EF7B0EBC70072EB5772CB
:100DC0000CFB08F734BFA2EBC702B2EBC70261EB22
:100DD000577115EB4C254FEA816141EA92114FEAB8
:100DE00082624FEAD13742EA901206FB07FC44F1D7
:100DF00000044FEA80604FEA1C4C0CFB0BF7D21B3F
:100E000003FB0CF761EB07010CFB0EF7B0EB07409F
:100E100072EB17420CFB08F734BFA2EB0742B2EBB0
:100E2000074261EB174115EB1C154FEA813141EA8E
:100E300092414FEA823242EA90424FEA80304FEAD2
:100E40000C7644F1000448EA03434EEA0B484FF0A5
:100E5000000EB2EB080C71EB030724BF6246394663
:100E60004EEB0E0E4FF0000B0018524149414BEB78
:100E70000B0BB2EB080C71EB03077BF1000B24BFEB
:100E8000624639464EEB0E0E4FF0000B00185241F1
:100E900049414BEB0B0BB2EB080C71EB03077BF1F9
:100EA000000B24BF624639464EEB0E0E51EA020794
:100EB00018BF46F0010616EB0E7655F1000254F10C
:100EC000000103D5BDE88901BDE80088BDE88901BE
:100ED000BDE80048B619524141EB0101A3F10103FD
:100EE000704780807F7E7D7C7B7A79787776767597
:100EF0007473727171706F6E6E6D6C6C6B6A6A690F
:100F00006868676666656464636362616160605FA8
:100F10005F5E5E5D5D5C5C5B5B5A5A595958585721
:100F20005756565555555454535352525251515089
:100F300050504F4F4F4E4E4D4D4D4C4C4C4B4B4BDC
:100F40004A4A4A4949494848484747474746464622
:100F5000454545444444444343434342424242415D
:100F60004141002B26D4770021D01CB54FEA37072A
:100F700003B44FF010004FF010014FF000000FBC11
:100F8000BDE810400BF1010BBBF1010F08BF5FEA98
:100F9000170722BF12F1010211F101014FF00041C8
:100FA00043F1000300F0004043EA00007047F9D32A
:100FB0005708DAE746EA064613F1400F4FEA1646AD
:100FC0001FDD13F1200FDFBF16430A460021203337
:100FD0005B42C8D0C3F1200746EA064602FA07F78B
:100FE0004FEA164646EA0706C3F1200722FA03F243
:100FF00001FA07F721FA03F14FF0000342EA070272
:10100000B1E746EA020646EA06464FEA164646EACF
:101010000106BCBF46EA0646360C4FF000034FF00F
:1010200000024FF000019EE72DE9C048934630B41E
:1010300091E8380007C831EA400C48BF34EA430C55
:1010400003D5FFF7F2FDFFF78CFFF0BCBDE8008889
:101050002DE9C048934630B491E8380007C810F035
:10106000804F08BF13F0804F03D100F005F8FFF761
:1010700078FFF0BCBDE8008820F07F4780EA0300DD
:1010800023F07F4C07EB0C03A3F57C5300F00040EA
:10109000A3F1FE0392F0000F00F0B38095F0000F73
:1010A00000F077802DE901494FEA11404FEA1446DC
:1010B00021EA004800FB06FC24EA064708FB06F686
:1010C00007FB08F800FB07F718EB06484CEB164C3B
:1010D0004FEA124B18EB07484FEA15464CEB174006
:1010E00022EA0B4E0BFB06FC25EA06470EFB06F632
:1010F00007FB0EFE0BFB07F71EEB064E4CEB164CE8
:101100004FF000061EEB074E4CEB174B18EB0B088D
:1011100040F1000018EB0E0B58EB000840F1000006
:101120008F1A4FF000013CBFC943661B14BFB5EBDB
:10113000040C00213CBFC943F61B4FEA17444EEA9A
:101140008E0E27EA04454FEA1C4704FB07622CEA8F
:10115000074C05FB07F70CFB05F604FB0CFC16EB34
:10116000074642EB174216EB0C4642EB1C421BEBC8
:10117000060658EB0202414146EA9E0601D5BDE84B
:101180000189B619524141EB0101A3F10103BDE808
:1011900001894FEA14454FEA114724EA054621EA3E
:1011A000074C05FB07F406FB07F70CFB06F105FBF4
:1011B0000CFC11EB074144EB17444FEA124711EBCB
:1011C0000C4144EB1C4422EA074C05FB07F206FBEA
:1011D00007F70CFB06F605FB0CFC16EB074642EB8B
:1011E000174216EB0C4642EB1C456A1854F10001FD
:1011F00048BF7047B619524141EB0101A3F1010309
:10120000704795F0000F37D04FEA11424FEA14476C
:1012100021EA024624EA074C02FB07F106FB07F726
:101220000CFB06F402FB0CFC14EB074441EB1741EA
:101230004FEA154714EB0C4441EB1C4125EA074CDF
:1012400002FB07F506FB07F70CFB06F602FB0CFC9E
:1012500016EB074645EB174516EB0C4645EB1C42D3
:10126000121951F1000148BF7047B619524141EBC4
:101270000101A3F1010370474FEA14454FEA1147FA
:1012800024EA054621EA074C05FB07F106FB07F7B0
:101290000CFB06F24FF0000605FB0CFC12EB0742BC
:1012A00041EB174112EB0C4251EB1C4148BF704718
:1012B000921841EB0101A3F10103704770B5044698
:1012C00000688168C943C90717D1816821F001010D
:1012D000816000F0FBFD05460AE000BF00F0F6FD6E
:1012E000401B022804D920688068C043C00706D08C
:1012F00020688068C043C007F0D0002070BDA06A9D
:1013000040F01000A062E06A40F00100E0620120BD
:1013100070BD10B50146406A826A12F0500F05D0C8
:10132000006A026BBDE8104008461047816A41F42C
:101330000071816201688968C1F3424107290CD1BB
:10134000017B51B9816A21F480718162816AC9048B
:1013500003D4816A41F00101816200F0A7F910BD58
:1013600010B5406A816A41F040018162C16A41F072
:101370000401C16200F0A1F910BD10B5406A00F08F
:101380009BF910BDF8B500260446009600688168F8
:10139000C943C9072DD0816841F001018160164819
:1013A00016490068B0FBF1F000E0401E00900028F4
:1013B000FBD100F08BFD054616E000BF00F086FD76
:1013C000401B022810D920688068C043C0070BD09A
:1013D000A06A40F01000A062E06A40F00100E06204
:1013E00084F824600120F8BD20688068C043C007ED
:1013F000E4D10020F8BD00005C00002040420F0056
:10140000FEE70000014800F003BB00009000002050
:1014100030B590F840500124AC40C56B6C60046856
:1014200063604368102B036803D099600068C26052
:1014300030BD9A600068C16030BD704770B504244B
:101440004FF6FF75E0B22A46162102F022F8E0B20C
:101450002A468E2102F01DF8641C7C2CF2DD162435
:10146000E1B22A46042002F014F8E1B22A467C20B8
:1014700002F00FF8641C8E2CF2DD042543F6E7160B
:101480001624E1B2E8B2324602F003F8241D8E2C95
:10149000F7DD14357C2DF3DD16250424E9B2E0B226
:1014A000324601F0F6FF241D7C2CF7DD14358E2D1D
:1014B000F3DD70BD102000F007BC10B5202000F057
:1014C00003FC402000F000FCBDE81040802000F04C
:1014D000FBBB72B6FEE70000F8B500250446009598
:1014E00090F8240001280BD0012084F82400204625
:1014F000FFF7E4FE2046FFF745FF060002D050E06C
:101500000220F8BDA06A20F4885040F00200A062DA
:10151000022000F081FD25490968B1FBF0F0400090
:1015200000E0401E00900028FBD12068816841F057
:101530000801816000F0CAFC074608E000F0C6FC24
:10154000C01B0A2803D920688068000715D42068CA
:1015500080680007F2D42068816841F0040181604E
:1015600000F0B4FC074612E000F0B0FCC01B0A28F3
:101570000DD920688068400709D5A06A20F00200D4
:1015800040F01000A06284F824500120F8BD2068CB
:1015900080684007E8D4A06A20F0020040F0010013
:1015A000A06284F824503046F8BD00005C000020A2
:1015B000F8B50024009490F824202546012A12D082
:1015C000012280F824204A681F23072A0DD20668CA
:1015D000776B521E02EB820293409F430B6893404D
:1015E0001F43776319E00220F8BD06680D2A0AD26E
:1015F000376BD21F02EB820293409F430B689340EC
:101600001F43376309E0F76A0D3A02EB8202934009
:101610009F430B6893401F43F7620A6807230668DD
:101620000A2A0AD3F7680A3A02EB420293409F4320
:101630008B6893401F43F76008E0376902EB420272
:1016400093409F438B6893401F4337610A68102A79
:1016500001D0112A20D1124B02689A4217D1936807
:101660001B0219D4936843F400039360096810299E
:1016700012D10C490C4A0968B1FBF2F101EB81016E
:10168000490000E0491E00910029FBD104E0816A75
:1016900041F020018162012480F824502046F8BDE9
:1016A000002401405C00002040420F00014901205D
:1016B000C870704700000020704770472DE9F04166
:1016C0004FF0000704003D467ED0A06A002628B9EE
:1016D000E66284F82460204600F07EF82046FFF79A
:1016E000EDFDA16A01F01001014304D0A06A40F0B1
:1016F0001000A06268E0A16A21F4885141F0020163
:10170000A1626268E169237B0A4347EA43010A4315
:10171000A1684FF48077B94208D0012906D0002192
:1017200094F814C0BCF1010F02D00AE03946F7E783
:10173000F3B1A36A43F02003A362E36A43F0010319
:10174000E3622368D3F804C02CF4694C4CEA010C22
:10175000C3F804C023689968DFF870C001EA0C017F
:1017600011439960A168B9420BD0012909D00CE05E
:10177000DFF85CC0A3690CEB43330B4343F4006117
:10178000DFE7218A0D05A5F580152168CB6A23F4D2
:1017900070032B43CB62216889680E4B194091423C
:1017A00008D1E662A16A21F0020141F00101A162C3
:1017B000BDE8F081A06A20F0020040F01000A062B5
:1017C000E06A40F00100E0620120F1E7FDF7E1FF8F
:1017D00000E0FFFFFE0E1FFF70B586B00025064635
:1017E000009501950295039500681A4988422ED10B
:1017F0001949886940F400708861886900F40070B4
:101800000490886940F0040088618869694600F0A6
:101810000400049001200090032001900F4800F084
:101820005FFA104C0E48C4E900058020C4E902505C
:1018300040002061800060612020C4E90605204648
:1018400000F090F908B1FFF744FE3462666206B01A
:1018500070BD00000024014000100240000801405B
:1018600008000240900000202DE9F0478946044618
:101870003B4900683B4F0E1D9046884201D0B8425C
:1018800007D1306810F4702F03D001252846BDE839
:10189000F08794F8240001280CD0012084F824005B
:1018A0002046FFF76FFD05004FF0000004D084F8DC
:1018B0002400EBE70220EAE7A16A40F601629143C7
:1018C00041F48071A1622168B94218D1326812F4E2
:1018D000702F14D0A16A41F48011A16231684905CA
:1018E00005D5A16A21F4005141F48051A162A16A99
:1018F000C9040AD5E16A21F00601E16206E0A26AA4
:1019000022F48012A2624968E9E7E06284F82400C8
:10191000216A15488862216A1448C862216A1448FD
:10192000086321686FF0020008602068816841F454
:1019300080718160216843464A464C31206A00F03C
:101940003FF920688168C1F342410729816803D0CB
:1019500041F48011816099E741F4A001FAE70000A9
:101960000024014000280140131300087B130008E5
:101970006113000810B5044690F82400012807D030
:10198000012084F824002046FFF798FC10B113E0F2
:10199000022010BD21688A6822F480728A60216A60
:1019A00091F82120022A07D1084600F00EF8A16A1A
:1019B00030B141F04001A162002184F8241010BD33
:1019C00021F4885141F00101F5E710B590F821109C
:1019D0000022022905D00421816380F82020012003
:1019E00010BD01680B6823F00E030B6001680B68E3
:1019F00023F001030B6090F84030C46B012101FA21
:101A000003F3636080F8211080F82020104610BD99
:101A10002DE9F05FC16B0C6801680B68D0F840C01D
:101A2000042202FA0CF2494DDFF824A1494E4A4F34
:101A3000DFF828B1DFF828E122422CD05A072AD556
:101A40000A68920603D40A6822F004020A60016858
:101A5000A94201D1042219E0514501D1402215E0EB
:101A6000B14202D14FF4806210E0B94202D14FF48A
:101A700080420BE0594502D14FF4802206E07145C7
:101A800002D14FF4800201E04FF080622F49083903
:101A90004A60C16A3BE04FF0020808FA0CF818EA05
:101AA000040F4FF000094FF0010235D05FEA837850
:101AB00032D50B689B0605D40B6823F00A030B6034
:101AC00080F821200168A94201D1022219E0514584
:101AD00001D1202215E0B14202D14FF4007210E092
:101AE000B94202D14FF400520BE0594502D14FF4F4
:101AF000003206E0714502D14FF4001201E04FF0D0
:101B00000072124908394A6080F82090816A0029E1
:101B10001AD0BDE8F05F0847082505FA0CF5254204
:101B200012D01B0710D50B6823F00E030B6090F842
:101B30004010C36B02FA01F15960826380F82120E2
:101B400080F82090016BE2E7BDE8F09F08000240BA
:101B50001C00024030000240440002405800024095
:101B60006C00024030B528B308C813491422194448
:101B7000B1FBF2F18900C163104981630221417711
:101B80001A6843F6F0718A43D0E900142143D0E982
:101B900002452C432143046921434469214384695C
:101BA00021431143196000214163012242770177EB
:101BB000084630BD012030BDF8FFFDBF00000240E7
:101BC00070B5044690F82000002501280CD00120B3
:101BD00084F8200094F821600020012E06D084F8BB
:101BE00020000225284670BD022070BD022684F820
:101BF0002160A0632068066826F001060660204682
:101C0000FFF706FCE06A00282068016802D041F076
:101C10000E0106E021F0040101602068016841F036
:101C20000A0101602068016841F001010160D9E703
:101C300070B5044600F04AF90546601C02D004481D
:101C40000078044400F042F9401BA042FAD370BD72
:101C50005000002070B5054600F038F9194C216B92
:101C6000401A96282AD3102D06D0202D0AD0402DB8
:101C700011D0802D1BD01EE06078401C00F00300C6
:101C8000607018E0A0780321401CB0FBF1F201FB6A
:101C90001200A0700FE0208940F6B831C83080B241
:101CA0002081884207D94FF47A70208103E02078A0
:101CB00028B10020207000F009F9206370BD0120D8
:101CC000F8E7000000000020044910B50A6802424D
:101CD00002D00860FFF7BEFF10BD000014040140F1
:101CE0002DE9F84FDFF8B8910024A9F1040B234641
:101CF0000F2709F1040AABF1040EC9E00125A54044
:101D00002A40AA427DD1674ED1F804C0ACEB060848
:101D1000B44532D014DCBCF1030F3AD009DCBCF17D
:101D2000000F2AD0BCF1010F1CD0BCF1020F31D141
:101D30001DE0BCF1110F17D0BCF1120F2AD119E030
:101D4000B8F5881F19D006DCB8F5803F15D0B8F576
:101D5000801F1FD111E0B8F5001F0ED0B8F5041F89
:101D600018D10AE0CB6815E0CB681B1D12E0CB68E8
:101D700008330FE0CB680C330CE08B682BB1012BE0
:101D80004FF0080303D0456104E0042302E005613D
:101D900000E00023FF2A01D8064601E000F1040616
:101DA0004FEA840501D9A5F12005D6F8008007FA8D
:101DB00005FC28EA0C0803FA05F548EA0508C6F808
:101DC00000804D68ED0062D5374DAE6946F00106E2
:101DD000AE61AD6924F0030605F001050095334DB1
:101DE00006EB050CDCF80850A607360F07FA06F8D4
:101DF00025EA0805DFF8B880404503D14FF0000818
:101E000017E044E0DFF8AC80404502D14FF0010814
:101E10000FE0DFF8A480404502D14FF0020808E04F
:101E2000DFF89880404502D14FF0030801E04FF001
:101E3000040808FA06F848EA0508CCF808804D6856
:101E4000D9F80060ED024D4601D5164300E09643F7
:101E50002E604D68DAF80060AD02554601D5164394
:101E600000E096432E604D68DBF80060AD035D46F0
:101E700001D5164300E096432E604D68DEF8006001
:101E8000ED03754601D5164300E096432E60641CB1
:101E90000D682A46E5407FF431AFBDE8F88F0000B9
:101EA0000804014000001110001002400000014031
:101EB00000080140000C01400010014000140140E6
:101EC0000AB1016170470904FBE70000014880681E
:101ED00070470000500000200248816802781144D9
:101EE0008160704750000020074810B5016841F03C
:101EF00010010160032000F07DF80F2000F006F8CB
:101F000000F024F8002010BD0020024070B50D4DF7
:101F100004464FF47A712878B1FBF0F00A49096859
:101F2000B1FBF0F000F0D7FC48B9102C07D200222A
:101F30002146501E00F03EF800206C6070BD01206C
:101F400070BD0000500000205C000020104808B563
:101F5000816941F001018161816901F00101009114
:101F6000C16941F08051C161C069002200F0805018
:101F700000901146052000F01DF8052000F00CF837
:101F80000448416821F0E06141F00071416008BD02
:101F90000010024000000140002809DB00F01F0291
:101FA000012191404009800000F1E020C0F80011BB
:101FB00070470000F0B40E4B1B680C46C3F30223BD
:101FC000C3F10705042D00D90425191D072901D2E5
:101FD000002300E0DB1E012606FA05F1491E214020
:101FE00099409E40761E16403143F0BC01F001BE80
:101FF0000CED00E0064900F0070208684FF6FF0309
:10200000184040EA0220034A10430860704700006D
:102010000CED00E00000FA0510B501460020234C4D
:10202000012922D0022939D010291DD161682268E6
:10203000D20119D51E48C1F38342C903805C0AD579
:1020400061681B4AC1F34041921E515C194AB2FBC0
:10205000F1F1484301E0184948436168490203D45B
:1020600040000321B0FBF1F010BD226AC2F3012150
:10207000012903D1920701D5C80310BD022905D15A
:10208000626A920702D549F6404010BD0329FCD18F
:1020900021688903F9D54FF2244010BD00F01AF9E8
:1020A0006168C1F38131491C4900DBE7001002403F
:1020B0005047000800127A0000093D002DE9F8435E
:1020C00005460078354CC00754D0E0690026C000B2
:1020D00008D4E06940F08050E061E069012600F03A
:1020E000805000902E480168C90512D401688046CE
:1020F00041F480710160FFF7E9FE074605E000BF8B
:10210000FFF7E4FEC01B642823D8D8F80000C00500
:10211000F6D5206A10F4407021D0A98801F44071EE
:1021200081421CD0206A1F49012220F440700A60BD
:1021300000220A602062C00711D0FFF7C7FE0746E1
:1021400041F2883808E000BFFFF7C0FEC11B4145DF
:1021500002D90320BDE8F883206A8007F4D5206AFD
:10216000696820F44070084320621EB1E06920F0E5
:102170008050E0612878800705D56068A96820F460
:102180004040084360602878C00605D56068E9686B
:1021900020F48000084360600020DBE7001002406C
:1021A00000700040400442422DE9F0470F46050010
:1021B00061D0434E306800F00700B84209D2306861
:1021C00020F0070038433060306800F00700B84264
:1021D00051D128683B4C810712D5400703D5606870
:1021E00040F4E06060602878000703D5606840F440
:1021F000605060606068A96820F0F000084360608B
:102200002878C00728D06868012810D021680228E3
:1022100010D0890700292EDA616821F003010143FB
:102220006160FFF753FE804641F288390DE0216876
:102230008903EFE78901EDE7FFF748FEA0EB08010E
:10224000494502D90320BDE8F0876068696800F05D
:102250000C00B0EB810FEFD1306800F00700B842FE
:102260000BD9306820F0070038433060306800F048
:102270000700B84201D00120E5E72878400705D5DE
:102280006068E96820F4E06008436060287800072F
:1022900006D56068296920F4605040EAC10060609A
:1022A00000F028F86168084AC1F30311515CC84086
:1022B0000649086006480068FFF728FE0020C2E7CC
:1022C0000020024000100240604700085C0000202F
:1022D000540000200448054900684968044AC1F3D5
:1022E000C221515CC84070475C00002000100240D1
:1022F000704700080E4A51680E4801F00C03042B89
:1023000011D0082B0FD10C48C1F38343C903C05C23
:102310000AD55168084AC1F34041921E515C054AF2
:102320005043B0FBF1F07047044948437047000048
:102330000010024000127A003E47000800093D00EC
:102340002DE9F84F040070D02078C04DC00749D067
:102350006868C0F38100012807D06868C0F3810075
:10236000022809D16868C00306D52868800339D5DA
:1023700060680028E7D035E06068B0F5803F0BD09A
:1023800010B1B0F5A02F11D0286820F4803028605B
:10239000286820F4802002E0286840F4803028601B
:1023A000606890B1FFF792FD06460AE0286840F4A5
:1023B00080202860F0E700BFFFF788FD801B6428BD
:1023C00073D828688003F7D50CE0FFF77FFD064639
:1023D00005E000BFFFF77AFD801B6428F0D828686D
:1023E0008003F7D420789A4E80074FF001094FF010
:1023F000000839D5686810F00C0F07D06868C0F382
:102400008100022809D16868C00306D428688007C3
:1024100014D52069012808D110E02069B0B1C6F8B0
:102420000090FFF753FD074605E00AE1FFF74EFD78
:10243000C01B0228C4D828688007F7D528686169BE
:1024400020F0F80040EAC10028600DE0C6F80080E6
:10245000FFF73CFD074604E0FFF738FDC01B0228EC
:1024600023D828688007F7D4207800072CD579482E
:10247000A169D9B1C0F80090FFF728FD074604E034
:10248000FFF724FDC01B02280FD8686A8007F7D524
:1024900071484FF4FA510068B0FBF1F0009000BFB2
:1024A0000098411E0091FAD20EE080E0C0F8008052
:1024B000FFF70CFD074604E0FFF708FDC01B0228EC
:1024C00075D8686A8007F7D42078400760D5E86936
:1024D0000027C00008D4E86940F08050E861E8694E
:1024E000012700F0805000905C480168C90513D4B2
:1024F0000168834641F480710160FFF7E7FC824682
:1025000006E000BFFFF7E2FCA0EB0A0064284ED80B
:10251000DBF80000C005F5D5E06801280AD008B155
:10252000052813D0286A20F001002862286A20F0CC
:10253000040002E0286A40F001002862E06841F2ED
:10254000883B98B1FFF7C2FC82460BE0286A40F056
:1025500004002862EEE700BFFFF7B8FCA0EB0A0119
:1025600059455AD8286A8007F6D50CE0FFF7AEFC2B
:10257000824605E0FFF7AAFCA0EB0A0159454CD8BA
:10258000286A8007F6D41FB1E86920F08050E8611E
:10259000E06988B36968C1F38101022944D0022847
:1025A000C6F8608004D0FFF791FC044638E034E0C0
:1025B000FFF78CFC074604E0FFF788FCC01B0228ED
:1025C0002BD828688001F7D4206AB0F5803F05D168
:1025D0006868A16820F4003008436860D4E9080105
:1025E0000843696821F4741108436860C6F8609074
:1025F000FFF76CFC044606E025E000BFFFF766FC31
:10260000001B022809D828688001F7D51BE000BF0D
:10261000FFF75CFC001B022802D90320BDE8F88FFD
:1026200028688001F4D40EE00128F7D06868226A97
:1026300000F48031914204D1616A00F47010884244
:1026400001D00120EAE70020E8E700000010024086
:1026500000004242800442425C00002000700040C2
:1026600070B5040009D0606A002540B1256165613C
:10267000A56294F8510040B10CE0012070BD606883
:10268000B0F5827FF4D0E561F2E784F8505020463F
:1026900000F040F8022084F851002068016821F021
:1026A00040010160A088218900F4827001F4044196
:1026B0000843A18901F400610843217C01F0020173
:1026C0000843217D01F001010843218B01F40071D1
:1026D0000843217F01F03801084394F8201001F0ED
:1026E00080010843218D01F40051084321680860EE
:1026F000A069042101EA1040216848602068C1698E
:1027000021F40061C1616565012084F85100002059
:1027100070BD000000B585B00021009101910291CB
:10272000039100680F4988421AD10F48816941F42A
:1027300080518161816901F480510491816941F086
:10274000040181618069694600F004000490A020C2
:10275000009002200190032003900448FFF7C0FA84
:1027600005B000BD003001400010024000080140EB
:102770002DE9F84F984616468A460446FFF7A6FB11
:10278000814694F8510001281ED1BAF1000F73D090
:10279000002E71D094F85000012815D0012784F83C
:1027A0005070032084F8510000256565C4F830A0FE
:1027B000A686E686A563A587E58765642564A06887
:1027C000B0F5004F03D00CE00220BDE8F88F206880
:1027D000016821F0400101602068016841F48041F6
:1027E000016020680168490603D4016841F0400196
:1027F0000160E068B0F5006F606803D048B3012E57
:1028000027D047E008B1012E1FD1206B2168008836
:10281000C86006E020688168890709D5216B0988AE
:10282000C160206B801C2063E08E401EE0860CE0BF
:10283000FFF74CFBA0EB0901414503D3B8F1FF3F83
:1028400003D035E0B8F1000F32D0E08E0028E1D19E
:1028500023E0206B21680078087306E02068816817
:1028600089070AD5216B09780173206B401C20630E
:10287000E08E401EE0860DE02BE0FFF727FBA0EB8B
:102880000901414503D3B8F1FF3F03D010E0B8F18F
:10289000000F0DD0E08E0028E0D14A464146204688
:1028A00000F001FD08B120206065A06830B109E0AA
:1028B00084F8517084F85050032086E72068C1687E
:1028C0008068009084F8517004F8505F60680028B8
:1028D000F3D0012079E710B5401EB0F1807F01D31D
:1028E000012010BD4FF0E02460610F21601701F05E
:1028F00080F90020A06107202061002010BD0000A9
:1029000070B590F83C20012A26D0012480F83C4084
:10291000022280F83D2003685A689D6822F0700604
:102920000A6832435A600D4B02689A4208D0B2F1ED
:10293000804F05D00A4B9A4202D00A4B9A4204D1EA
:10294000496825F080031943916080F83D400021DB
:1029500080F83C10084670BD022070BD002C01407C
:10296000000400400008004010B5040003D094F8B3
:102970003D0010B107E0012010BD002084F83C00AC
:10298000204600F01FF8022084F83D00211D206839
:1029900000F0DEFE012084F8460084F83E0084F852
:1029A0003F0084F8400084F8410084F8420084F835
:1029B000430084F8440084F8450084F83D0000207A
:1029C00010BD000008B501680B48B1F1804F0BD075
:1029D0000A4A914207D1C16941F00201C161C0694F
:1029E00000F00200009008BDC16941F00101C16121
:1029F000C06900F00100F5E700100240000400404B
:102A000090F83D10012901D001207047022180F883
:102A10003D1000680B49884208D0B0F1804F05D0C6
:102A20000949884202D00949884204D1816801F0ED
:102A30000701062903D0016841F00101016000206F
:102A400070470000002C01400004004000080040D6
:102A500070B5044690F83C000025012817D00126E7
:102A600084F83C60022084F83D002068826822F0EF
:102A7000770222F47F4282600868502838D00DDC4B
:102A800020284FD005DC90B3102811D14AE0022055
:102A900070BD302846D040280AD13BE060282FD0B6
:102AA00070280DD0B0F5805F03D0B0F5005F12D074
:102AB000012584F83D60002084F83C00284670BD64
:102AC000CB68D1E90121206800F08BFE2068816885
:102AD00041F0770109E0CB68D1E90121206800F0DD
:102AE00080FE2068816841F480418160E1E719E05F
:102AF000CA684968206800F029FF5021206806E074
:102B0000CA684968206800F032FF6021206800F040
:102B100072FECEE7CA684968206800F017FF4021BE
:102B20002068F4E7226801461046F0E700B585B05A
:102B3000002100910191029103910068B0F1804F52
:102B400010D10948816941F00401816180696946B9
:102B500000F00400049002200090019003900348CC
:102B6000FFF7BEF805B000BD0010024000080140AC
:102B700070B5044690F83C0000260D4601280FD0A1
:102B8000012084F83C006AB1042A1DD0082A2FD005
:102B90000C2A3FD00126002084F83C00304670BD4E
:102BA000022070BD206800F02FFE2068816941F08E
:102BB000080181612068816921F004018161206838
:102BC00081692A69114311E0206800F045FE206800
:102BD000816941F4006181612068816921F480612B
:102BE0008161206881692A6941EA02218161D2E715
:102BF000206800F05DFE2068C16941F00801C161F4
:102C00002068C16921F00401C1612068C1692A6995
:102C1000114311E0206800F077FE2068C16941F49B
:102C20000061C1612068C16921F48061C1612068CF
:102C3000C1692A6941EA0221C161ACE710B504000B
:102C400003D094F83D0010B107E0012010BD002032
:102C500084F83C00204600F01EF8022084F83D0075
:102C6000211D206800F074FD012084F8460084F8DE
:102C70003E0084F83F0084F8400084F8410084F866
:102C8000420084F8430084F8440084F8450084F846
:102C90003D00002010BD704710B50446022249B126
:102CA00004290ED0082913D094F84100012816D029
:102CB000012010BD94F83E000128F9D184F83E208F
:102CC0000FE094F83F000128F2D184F83F2008E09B
:102CD00094F840000128EBD184F8402001E084F80A
:102CE00041200122206800F06FFD0F4920688842D2
:102CF00003D1426C42F4004242642068884208D00A
:102D0000B0F1804F05D00949884202D00849884275
:102D100004D1816801F00701062903D0016841F060
:102D200001010160002010BD002C014000040040A2
:102D300000080040FEE700007FB50025244800950C
:102D400001950295816941F400718161816901F405
:102D500000710391816941F00401816180691E4C19
:102D600000F0040003901B48C4E900058020C4E97A
:102D70000250400020618000C4E90505C000E06108
:102D80002046FEF7EFFE08B172B6FEE7124813497F
:102D90003038046260628560016005730575012446
:102DA00045604FF400210461C161FEF787FC08B162
:102DB00072B6FEE705200095CDE901400648694658
:102DC0003038FEF7F5FB002801D072B6FEE77FBD74
:102DD0000010024008000240900000200024014042
:102DE0002DE9F04385B00024344800940194029406
:102DF0000394816941F020018161816901F0200122
:102E00000491816941F004018161816901F004014B
:102E10000491816941F0080181618069DFF8A08037
:102E200000F008000490002210214046FFF748F807
:102E3000DFF89090002203214846FFF741F8102068
:102E400001250226CDE90005CDE902466946404646
:102E5000FEF746FF0327CDE90075CDE90247694635
:102E60004846FEF73DFF0095CDE9017469464046AE
:102E7000FEF736FF00960196694640460396FEF738
:102E80002FFFF02000901048CDE901056946484623
:102E9000FEF726FF002211460A20FFF78BF80A20D2
:102EA000FFF77AF8002211461720FFF783F8172062
:102EB000FFF772F805B0BDE8F08300000010024093
:102EC00000080140000C0140000021100F4810B51F
:102ED0000D4901604FF48271416000218160C16041
:102EE0004FF400720161C0E905121022C0E9072108
:102EF000416281620A21C162FFF7B2FB002801D062
:102F000072B6FEE710BD000000300140D400002082
:102F100010B58EB000240794089409940A940B9479
:102F20001C2168460C94FDF723FA1F484FF080419E
:102F300001604721C0E9011440F2E731C0E9031400
:102F40008461FFF711FD08B172B6FEE74FF48050BF
:102F5000079007A91448FFF77BFD08B172B6FEE79A
:102F60001148FFF76BFE08B172B6FEE70B940BA990
:102F70000D480C94FFF7C4FC08B172B6FEE7602060
:102F800000904FF4FA70CDE9010404226946064826
:102F90000494FFF7EDFD08B172B6FEE70248FFF7B3
:102FA000C5FD0EB010BD00002C01002010B586B08C
:102FB0000024174800940194029403940494134944
:102FC000059401604721C0E901146321C0E903149D
:102FD0008461FFF7C9FC08B172B6FEE74FF4805078
:102FE000009069460A48FFF733FD08B172B6FEE764
:102FF0002020CDE9040404A90548FFF781FC00283E
:1030000001D072B6FEE706B010BD0000000400401B
:1030100074010020FEE7FEE7704700002DE9F84F3D
:10302000964C2078002878D19649954862780D68AA
:1030300050F82230EB6250F82200C8600968002086
:103040004862E0708F49F0224831A1F5AE70FEF77A
:103050000BFCFEF73BFF0546A34604E0FEF736FFF8
:10306000401BC82803D89BF803000028F6D08648E8
:10307000FEF780FC0026DFF80C9240F6FF7537461D
:10308000344609F1480900BF39F81400B04200D9AC
:103090000646A84200D2054601F002F87B4901F03D
:1030A00013F87B4900F0D2FE014601F00DF83946D5
:1030B00000F058FE641C0746F02CE5DB7019BBF8E5
:1030C000081043080120A1F11E044FF000084A46F1
:1030D00011F11E0102EB400C3CF802CCA44505DACC
:1030E00032F810C08C4501D3804602E0401C78289D
:1030F000F0DB4FF0FF34A146012002EB4001924685
:1031000031F8021C99420AD23AF81010994206D3BB
:10311000B9F1FF3F02D0044604E0ABE08146401C19
:10312000F028EADBAE4249D9701B502846DD00F09A
:103130009FFF564900F0C8FF554900F087FECBF8C5
:103140000C00304600F0ACFF504900F0BDFF504984
:1031500000F07CFECBF81000284600F0A1FF4B49A0
:1031600000F0B2FF4A4900F071FECBF81400494963
:10317000384600F06BFE00F097FD5946CBF818007A
:10318000B9F1FF3F25D0601C23D0A4EB0904002C2B
:103190001FDD0D463A48497850F82100401C00F0E8
:1031A0007FFF0646204600F063FF314600F08CFFAB
:1031B0000146394800F04AFEE8610AE00020CBF8F9
:1031C0000C00CBF81000CBF81400CBF81800CBF8AB
:1031D0001C000024314D2646281900964378601DB6
:1031E00002B2201D295D00B200F010F9641C772C9A
:1031F000F2DBFEF723F922499BF802001031564614
:1032000051F82070DFF8989000246FF00A0A00BF90
:1032100008EB040036F81000A0F5006000F028FF6D
:10322000494600F051FF394600F04EFF514601F08B
:1032300048F900F001FF00B2C0F1520000B21728B7
:1032400001DA172002E08D2800DD8D202855641C4E
:10325000782CDDDB002440F2FF76281900964378B5
:10326000601D02B2201D295D00B200F0CFF8641C81
:10327000772CF2DBBDE8F84F00F08CBB000000209B
:1032800040450008740100206000002033335340A3
:1032900000F07F4500007043002474499C03002027
:1032A000000028427047F8B515460E460B460092BE
:1032B00004460122022100F011F840B933460022F1
:1032C00080212046009500F009F8002804D0606DA8
:1032D00040F0200060650320F8BD00002DE9F843B0
:1032E0001E46914688460446089DFEF7EFFD401BAA
:1032F000351AFEF7EBFD074625480068C0F3CB30D2
:10330000684338E0701C37D0FEF7E0FDC01BA842D0
:1033100003D215B1009860B32CE02068416821F019
:10332000E00141606068B0F5827F0BD1A068B0F524
:10333000004F02D0B0F5806F04D12068016821F001
:1033400040010160A06AB0F5005F09D12068016802
:1033500021F4005101602068016841F400510160CE
:10336000012084F85100002084F850000320BDE8BB
:10337000F8830025401E00902068816838EA01002B
:1033800004D000214945BDD10020F0E70121F9E733
:103390005C0000202DE9F05F8246A2F120009B46F0
:1033A0008946602800D32022203AD0B21649002551
:1033B00000EB800000EB01085FF0010618F80570D3
:1033C0005FF0000406FA04F0384207D009EB04006D
:1033D000C1B20AEB0500C0B25A4609E00A98584546
:1033E00008D009EB0400C1B20AEB0500C0B20A9A8A
:1033F00000F04FF8641CE4B2072CE3D36D1CEDB26F
:10340000052DDBD3BDE8F09F5C4500082DE9F84FA2
:1034100005469A4691460C46501B00D5404207B2DD
:103420004FF0FF314D4501DA012000E008460090E1
:10343000BAEB040000D5404240420FFA80F85445F0
:1034400000DA012107EB08008B4606B2802D08D276
:10345000002C06DBA02C04DAE1B2E8B20A9A00F0F4
:1034600018F84D4501D1544511D0700000B24045C7
:1034700005DB06EB08010EB2009929440DB2B842F3
:10348000E4DCF01906B204EB0B0004B2DEE7BDE8A1
:10349000F88F38B5144680280ED2A0290CD20B46DE
:1034A000024600F0B3F8200A8DF800008DF80140C4
:1034B0000221684600F0EAF838BD2DE9F8431F46BE
:1034C00015468846089E09E0841D802C09D83B4695
:1034D00041466D1C0096FFF75DFFE0B22A78002A96
:1034E000F2D1BDE8F8830000F0B5C1B01D46469E9C
:1034F000144680283FD2A0293DD20219521E802AAC
:1035000002DBC0F18002D4B24A19521EA02A02DBAB
:10351000C1F1A002D5B24A19521ED3B20219521EED
:10352000D2B200F073F8320AF3B20020694603E029
:103530000A540E18801C7370B0EB440FF8DB0122A4
:1035400011460E48FEF7BCFC0D4F002210213846F4
:10355000FEF7B6FC0026640006E0642322466946B6
:103560000848FFF705F9761CAE42F6DB0122102170
:103570003846FEF7A5FC41B0F0BD0000000C01404C
:1035800000080140D40000203EB51F4C002202215B
:103590002046FEF795FC0A20FEF74AFB0122022195
:1035A0002046FEF78DFC0A20FEF742FB012000F0CA
:1035B0004FF83220FEF73CFB112000F049F8322092
:1035C000FEF736FB3A2000F043F805208DF80400A2
:1035D000012101A800F05AF8362000F039F808203F
:1035E0008DF80800012102A800F050F8292000F011
:1035F0002FF81420FEF71CFB0020A0238022014698
:103600000090FFF771FF3EBD000C0140F8B5074682
:103610001C4615460E462A2000F01AF8002000909D
:103620008DF801708DF803500421684600F02EF8E3
:103630002B2000F00DF88DF801608DF80340042177
:10364000684600F023F82C2000F002F8F8BD0000D6
:1036500031B5002201210A48FEF732FC094C002254
:1036600010212046FEF72CFC6423012269460648FF
:10367000FFF77EF8012210212046FEF721FC38BD1D
:10368000000C014000080140D400002070B50D4638
:103690000446012211460B48FEF712FC0A4E002296
:1036A00010213046FEF70CFCAAB2642321460748DD
:1036B000FFF75EF83046BDE8704001221021FEF7AA
:1036C000FFBB0000000C014000080140D4000020B6
:1036D0007047FEF701BC30B593B028216846FCF76F
:1036E00047FE14210AA8FCF743FE002501200F9590
:1036F00010951195010412958DE8230004904FF464
:10370000E010CDE90810022407946846FEF718FE81
:1037100008B172B6FEE70AA90F2081E831004FF424
:103720008060CDE90D0502210AA8FEF73DFD08B134
:1037300072B6FEE74FF4004011900F940FA8FEF709
:10374000BDFC002801D072B6FEE713B030BD704753
:10375000F0B50268194B1A4C1A4D4FF08047984249
:1037600005D0B84203D0A04201D0A84203D122F034
:1037700070064A683243984205D0B84203D0A0424E
:1037800001D0A84203D122F44074CA6822434C6994
:1037900022F08002224302608A68C2620A68826262
:1037A000984201D109690163012141610169C90799
:1037B00003D0016921F001010161F0BD002C01403D
:1037C000000400400008004010B501F01F03012173
:1037D000046A99408C430462016A9A401143016271
:1037E00010BD10B5846842EA032224F47F440A43E2
:1037F0002243826010BD826822F070020A4342F0C8
:10380000070181607047000030B5036A026A22F048
:10381000010202624268846924F073050C682C433B
:1038200023F002058B682B430A4DA8420BD123F0ED
:103830000805CB6822F440722B434D6923F0040342
:1038400015438A692A43426084614968416303627F
:1038500030BD0000002C014030B5026A036A23F03D
:1038600010030362436884690D6824F4E64444EA63
:1038700005248D6822F0200242EA05120B4DA84271
:103880000ED1CD6822F0800242EA05124D6923F480
:10389000406343EA85038D6922F0400243EA8503D1
:1038A0004360846149688163026230BD002C01403D
:1038B00030B5036A026A22F4807202624268C46907
:1038C00023F4007324F073050C682C438D6843EADD
:1038D00005230C4DA8420ED1CD6823F4006343EAC2
:1038E00005234D6922F4405242EA05128D6923F402
:1038F000806342EA05124260C4614968C1630362A1
:1039000030BD0000002C014030B5046A026A22F488
:10391000805202624268C3690D6823F4E64343EAB9
:1039200005238D6824F4005444EA0534064DA8426A
:1039300004D14D6922F4804242EA85124260C3619B
:1039400049680164046230BD002C014010B5036A6F
:10395000046A24F001040462846924F0F00444EA57
:10396000021423F00A020A438461026210BD10B5FA
:10397000036A046A24F010040462846923F0A0033B
:1039800024F4704444EA023243EA01118261016284
:1039900010BD0000F0B56F4C002589B0207821796A
:1039A000884203D120896189884231D008237C2252
:1039B000042102200095FFF797FD2078009518B1AB
:1039C0004FF4784364A202E04FF4FC6364A2042144
:1039D0000220FFF772FD208900F062FB624900F0CF
:1039E00073FB624900F032FA00F090F902460B4690
:1039F0005FA101A8FCF7F8FB4FF6E07301AA0421D0
:103A000038200095FFF759FD2078207120896081CA
:103A1000607861794FF6FF76884203D1A078A1796A
:103A200088421ED008237C220D2102200095FFF73A
:103A30005BFD4848A178443050F821306178103857
:103A400050F821204DA101A8FCF7CEFB334601AA76
:103A50000D2102200095FFF730FD60786071A0789D
:103A6000A071616A206900F0B3FA04D1A16A6069AB
:103A700000F0AEFA2CD008237C2290210220009581
:103A8000FFF732FD206900F041F902460B463EA1E6
:103A900001A8FCF7A9FB40F2FF773B4601AA902161
:103AA00002200095FFF709FD606900F02FF902463A
:103AB0000B4638A101A8FCF797FB3B4601AA9021D1
:103AC00044200095FFF7F9FC206960626069A062FC
:103AD000216AE06800F07CFA04D1E16AE06900F054
:103AE00077FA35D008237C22982102200095FFF731
:103AF000FBFCE06800F00AF902460B4628A101A889
:103B0000FCF772FB334601AA982102200095FFF7CB
:103B1000D4FC2649E069884207DB00F097F900F001
:103B2000F5F80B46024622A104E000F0EFF80B4640
:103B3000024622A101A8FCF757FB334601AA9821AF
:103B400044200095FFF7B9FCE0682062E069E0627C
:103B500009B0F0BD00000020484F4C4400000000B8
:103B600052554E20000000003333534000F07F4593
:103B70005472673A252E326656000000543A257377
:103B800020563A25730000004D61783A252E3166A3
:103B9000560000004D696E3A252E31665600000031
:103BA0005670703A252E32665600000000007A44A6
:103BB000663A252E31666B487A000000663A252E5B
:103BC0003066487A00000000FEE7490050EAC12054
:103BD00018BF04204A0D18BF40F0010040F2FF72E8
:103BE000B2EB515F08BF40F00200012808BF05207A
:103BF00070470907090E002804DB00F1E02080F877
:103C00000014704700F00F0000F1E02080F8141D50
:103C1000704730380A2801D20120704700207047D1
:103C200008B5FEF761F9FFF756FDFFF7D9F81B4815
:103C3000416941F0010141614069002200F0010049
:103C4000009011460B20FEF7B5F90B20FEF7A4F902
:103C5000FFF772F8FFF73AF9FFF75AF9FFF7A6F9FD
:103C600004210F48FFF718F80D484830FEF7C8FE4A
:103C70000C48016841F0010101600520FDF7D8FF03
:103C80000748CC38FDF728FCFFF77EFCFDF7D6FB94
:103C9000FFF780FEFFF7C2F9FCE7000000100240CA
:103CA0002C0100200824014070B5054600F0D8FA28
:103CB000044620F00040C0F1FF40C00F08D025F0BE
:103CC0000040C0F1FF40C00F04BF0120FCF77FFBA4
:103CD000204670BD10B500290AD00878002807D00A
:103CE00005487844FCF7E8FE002801D0002010BD0C
:103CF0000248784410BD00007E0B0000760B0000E7
:103D00000808A0F500114FEA3101704743004FEA5F
:103D1000D30C4FEA3C0C43401FBF40070CF16051ED
:103D200013F0FE4F70471CF0006F03D100200CF021
:103D3000004170470CF0004343EA507010B540EA70
:103D4000CC0000F042FA00BF000000924FEA0001F0
:103D5000FFF7D6BF4FF000414FF00000A1F5002162
:103D60007047000090EA010F48BF81F0004100F168
:103D70000683421A3CBF801A89184FEAD0524FF08E
:103D80007F4C1CEA410FA2EBD15318BF9CEA026F93
:103D900000F03B804FF0004C4CEA00204CEA01213F
:103DA00021FA03FC10EB0C0C1ED202F1FF325FEA89
:103DB0001C2040EBC25038BF70471CF07F0F4FEA09
:103DC000400C18BFBCF17F4F38BF7047C3F12003D0
:103DD000994008BF20F00100BCF17F4F38BF704709
:103DE000A0F1C04000F037BA4FEA3C00000A40EBB7
:103DF000C25028BF1CF0FF0F4FEA400CE6D018BF9E
:103E0000BCF17F4F38BF7047EAE79CEA026F05D0EC
:103E100010EA5C0F08BF00F00040704710B500F0DA
:103E2000D4F900BF64FBBE3E014800F018BB00BFE0
:103E30000000C07F401058BFC0F14040491058BF3B
:103E4000C1F140418142EFF3008070474FF47F0C95
:103E50001CEAD0121EBF1CEAD11392EA0C0F93EA9F
:103E60000C0F00F0858090EA010F48BF42F4807289
:103E700040F4000C41F400002CF07F4120F07F4022
:103E800000B58142A2EB03020FF2081CACEB504ECE
:103E9000C0F100009EF800E04FEA4E0E00FB0EFC61
:103EA00038BF49004FEA2C1C02F5FA020CFB0EF356
:103EB0004FEACE1E4FEA112C4FEAC1210EEB635E92
:103EC00042EB22420EFB0CFC4FEA1C5300FB031199
:103ED0004FEA112C4FEA01310EFB0CFC4FEADC4C8F
:103EE00000FB0C11C14228BF09184CEB03335DF8ED
:103EF00004EB10EB410143EBC250B2F57C0F38BF2D
:103F0000704729D512F0F00F1CBF00F1C04000F03F
:103F100000407047008182838485868788898B8CE6
:103F20008D8E8F919293959697999A9C9D9FA0A222
:103F3000A3A5A7A8AAACAEB0B2B3B5B7B9BCBEC072
:103F4000C2C5C7C9CCCED1D4D7D9DCDFE2E6E9EC13
:103F5000F0F3F7FAFE0000004FEA400C0CF1807C11
:103F6000BCF17E4F28BF7047B0F1C04000F073B97C
:103F700090EA010F0CEAD11348BF42F48072624507
:103F800038BF634507D213F47F0F16D080EA0100D3
:103F900000F00040704710B500F017F9097EFC3EB4
:103FA00000F005B880EA010000F00040704780EAA8
:103FB000010000F0004000F04EB912F47F0F04BF82
:103FC0000248704780EA010000F045B90000C07F58
:103FD00050EA010C00F113801CF5000F58BFBCF52E
:103FE000000F01D48842704707D710F5000F58BF63
:103FF00011F5000F15D488427047894270471CF5AF
:10400000000F04D5BCF5000FF7D5814270474FF083
:10401000807C1CEB400F38BF1CEB410F01D281426A
:10402000704710B500F0D1F8922449004FF00050CD
:104030004FF08051FFF7FEBE41000B0ED3F19E0200
:1040400008D950F400034FEA032323FA02F048BFD3
:104050004042704710B500F0B8F800BF4992248084
:10406000002070476FF0004282EA20007047000095
:1040700010F0004148BF4042B0FA80F310FA03F25A
:10408000C3F19D030BD051EAC35101EB122053063B
:1040900038BF704700F1010008BF20F001007047F1
:1040A000B0FA80F310FA03F2C3F19D030AD0D905E8
:1040B00001EB1220530638BF704700F1010008BF22
:1040C00020F00100704700004FF47F0C1CEAD01272
:1040D0001EBF1CEAD11392EA0C0F93EA0C0F00F0FA
:1040E000478090EA010F48BF42F480724FF0004CC5
:1040F0004CEA00204CEA012102EB0302A0FB011371
:10410000A2F50002002918BF43F001035B0028BF9D
:104110004FEA330342EB22425FEA132C4CEBC250CE
:104120002EBFBCEB436FB2F57C0F70474FEA036CB8
:10413000BCF1004F08BF20F00100B2F57C0F38BF82
:1041400070470BD582F0FF0212F5803FC8BF704761
:1041500000F1C040D8BF00F00040704700F5000CEF
:104160005FEA4C0C48BF7047B0F1C04000F073B834
:1041700090EA010F0CEAD11348BF42F48072624505
:1041800038BF634504D280EA010000F00040704768
:1041900010B500F01AF800BF8900013E00F007B822
:1041A00000F009B85FEA410C5FEA1C6C08D080EAB5
:1041B000010000F050B85FEA400C5FEA1C6CF6D1D9
:1041C0004FF00040A0F5800070470EF1020E2EF077
:1041D000030E5EF8044B244204D44FEA4102B2F1CC
:1041E0007F4F11D84FEA4003B3F17F4F0CD80ED167
:1041F0004FEAD07CB2F17F4F0CEB4C0C0CF1020C6F
:1042000008BF4CEBD17C04E04FF0080C01E04FEA12
:10421000D17C0CEB4C0324FA03F404F00704B4F152
:10422000040C06D20EEB840CBDE810404CF0010CDF
:104230006047DFE80CF0070802024FF00040A0F5ED
:10424000800010BD0846420018BFD2F1807288BFBE
:1042500000F0004010BDFF2141EAD050C00570477A
:104260004FEAD051002988BFD1F1FF0240F275809A
:1042700001F17D014FEA002070B5490840F000408F
:1042800038BF40080EA2430E040CD25C02FB02F3BE
:1042900004FB03F3C3F14043A3FB0254ED0D45EAD5
:1042A000442202FB02F3A0FB03546D42C4F14044DC
:1042B00038BF641EA2FB05350023E2FB0453EA0B62
:1042C00042EA4342A0FB023212F14004A2F1210370
:1042D000E40903F07F031F2B32D904EBC15070BDFA
:1042E000FEFAF7F3F0ECE9E6E4E1DEDCD9D7D4D26C
:1042F000D0CECCCAC8C6C4C2C1BFBDBCBAB9B7B69D
:10430000B4B3B2B0AFAEACABAAA9A8A7A6A4A3A2FF
:10431000A1A09F9E9E9D9C9B9A99989797969594F5
:104320009393929190908F8E8E8D8C8C8B8A8A89AC
:104330008988878786868584848383828281818039
:1043400004FB04F6B6EB004603D5E64248BF641C06
:10435000C3E7A64258BF641CBFE711F0FF0F02D1AC
:1043600000F00040704710B5FFF72FFF7FDBFFBE66
:1043700090EA010F48BF81F000413FF5FAAC421AC4
:1043800004D882F00042A0EB020011444FEAD05260
:104390004FF07F4C1CEA410FA2EBD15318BF9CEAAF
:1043A000026F4AD04FF0004C4CEA00204CEA012149
:1043B00021FA03FCB0EB0C0C0FD412F0FE0F36D038
:1043C0005FEA4C001DD5001240EBC25038BF704769
:1043D0001CF03F0F18BF70470BE0A2F101025FEA2B
:1043E0001C2040EBC25038BF70471CF07F0F18BF35
:1043F0007047C3F12003994014BF401E20F0010014
:10440000704780084FEA122308BF7047B0FA80FC5B
:10441000A2EB0C02CCF1280C60FA0CF093EA122FFC
:1044200004BF00EBC25070474FEAC3707047130AD5
:104430005FEADC1008BF7047F6E79CEA026F04D021
:1044400010EA5C0F08BF0020704710B5FFF7BDFEF3
:1044500040DFF63E81F000407047FCF795B80CF065
:104460000F03092B08BF082000F051800A2B0BD046
:10447000082B18BF704708BF1CF0400F0AD04FF040
:1044800000004FF0000170471CF0400F18BF4FF0C4
:10449000004070471CF0100F08D020F0704300F06F
:1044A0007F4242EAD3014FEA4370704700F0604018
:1044B00021F07F4242EA000201F07F4040EA727040
:1044C00070474FF0FF0212EAD0521CBF92F0FF0378
:1044D0008B42C2BFD14200EBC1507047002A0AD0C4
:1044E000002B0BD0002900F00040A4BF40F0FE409C
:1044F00040F40000704700F00040704743024FF066
:104500000B0C18BF4CF0806C7FF48EAC70471CF421
:10451000801F11D01CF4E02F03D06FEACC3149008A
:1045200070474FF04050EFF3008222F0704242EAB1
:10453000000282F3008870474FF0000070470000CF
:104540003100000063000000C7000000E703000026
:104550000000003F0000803F00000040000000001D
:104560000000005F00000007000700147F147F14A4
:10457000242A7F2A122313086462364955225000E8
:1045800005030000001C2241000041221C00082AF3
:104590001C2A0808083E08080050300000080808D7
:1045A0000808006060000020100804023E514945E0
:1045B0003E00427F400042615149462141454B3116
:1045C0001814127F1027454545393C4A49493001A6
:1045D000710905033649494936064949291E0036FD
:1045E000360000005636000008142241001414144E
:1045F000141400412214080201510906324979417C
:104600003E7E1111117E7F494949363E414141228A
:104610007F4141221C7F494949417F090909013EE7
:104620004149497A7F0808087F00417F41002040C6
:10463000413F017F081422417F404040407F020CEF
:10464000027F7F0408107F3E4141413E7F090909F6
:10465000063E4151215E7F091929464649494931A3
:1046600001017F01013F4040403F1F2040201F3F8C
:104670004038403F6314081463070870080761510D
:10468000494543007F414100020408102000414198
:104690007F00040201020440404040400001020447
:1046A0000020545454787F484444383844444420CB
:1046B000384444487F3854545418087E0901020C89
:1046C0005252523E7F0804047800447D400020404E
:1046D000443D007F1028440000417F40007C0418C6
:1046E00004787C0804047838444444387C14141456
:1046F00008081414187C7C080404084854545420F6
:10470000043F4440203C4040207C1C2040201C3C76
:104710004030403C44281028440C5050503C4464E5
:10472000544C44000836410000007F000000413630
:10473000080008082A1C087F7F7F7F7F0102020390
:104740000405060708090A0B0C0D0E0F10100102D4
:1047500002030405060708090A0B0C0D0E0F1010C2
:104760000000000000000000010203040607080921
:10477000000000000102030402400000000000A04D
:104780000000000005400000000000C8000000001C
:104790000C4000000000409C000000001940000098
:1047A0000020BCBE0000000034400000BFC91B8ECA
:1047B00000000004B5400000504BCFD06607E2CFA8
:1047C000010000006C4100003E8251AADFEEA734D8
:1047D00001000000D9420000DCB5A0E23A301F978A
:1047E000FFFFFFFFB4450000FD25A0C8E9A3C14FAE
:1047F000FFFFFFFFFF3F00000000008000000000FF
:10480000FF3F00000000008000000000312E305605
:1048100000000000322E305600000000302E3556C9
:1048200000000000316D73003130307573000000FE
:1048300032303075730000003530757300000000B1
:104840007C480008000000206000000028010008EB
:10485000DC48000860000020180A0000440100083D
:104860001C00000043000000F8FFFFFF0C000000E8
:104870000E0000000F0000002E00000000010100EB
:10488000FFFFFF000008FFFF000000000000000025
:10489000000000000000000000000000000080BFD9
:1048A000000080BF000080BF000080BF000000004B
:1048B0003848000828480008304800082448000804
:1048C0001C4800080C4800081448000801000000BB
:0C48D000100000000000000000127A0040
:04000005080000ED02
:00000001FF
